:020000040800F2
:100000001809002051020008250800081D080008F2
:10001000210800087D06000875090008000000009E
:100020000000000000000000000000002D08000893
:100030001908000800000000290800085D080008F1
:100040006B0200086B0200086B0200086B020008DC
:100050006B0200086B0200086B0200086B020008CC
:100060006B0200086B0200086B0200086B020008BC
:100070006B0200086B0200086B0200086B020008AC
:1000800081060008F50700086B0200086B020008F3
:100090006B0200086B0200086B0200086B0200088C
:1000A0006B0200086B0200086B0200086B0200087C
:1000B0006B0200080D0900086B0200086B020008C3
:1000C0006B0200086B0200086B0200086B0200085C
:1000D0006B0200086B0200086B0200086B0200084C
:1000E0006B0200086B0200086B0200086B0200083C
:1000F0006B0200086B0200086B0200086B0200082C
:100100006B0200086B0200086B0200086B0200081B
:100110006B0200086B0200086B0200086B0200080B
:100120006B0200086B0200086B0200086B020008FB
:100130000000000000000000000000006B0200084A
:100140006B0200086B0200086B0200080000000050
:10015000000000006B0200086B0200086B02000840
:100160006B0200086B0200080000000000000000A5
:100170006B0200086B020008000000000000000095
:1001800000000000000000006B0200086B02000885
:100190006B0200086B0200086B0200080000000000
:1001A00000F002F800F044F80AA090E8000C824445
:1001B0008344AAF10107DA4501D100F039F8AFF222
:1001C000090EBAE80F0013F0010F18BFFB1A43F035
:1001D000010318474C1F00006C1F0000103A24BF99
:1001E00078C878C1FAD8520724BF30C830C144BF9C
:1001F00004680C60704700000023002400250026DE
:10020000103A28BF78C1FBD8520728BF30C148BF79
:100210000B607047782900F09F80632900F0E78128
:10022000002070471FB501F050FF1FBD10B510BD75
:1002300000F0E9F91146FFF7F5FF00F067FD00F067
:1002400007FA03B4FFF7F2FF03BC00F00FFA000057
:100250000948804709480047FEE7FEE7FEE7FEE75A
:10026000FEE7FEE7FEE7FEE7FEE7FEE70448054996
:10027000054A064B7047000065080008A101000808
:10028000180100201809002018050020180500207A
:100290000FB41CB5074B06AA7B446946009005982D
:1002A00000F083F90020694600F092F91CBC5DF86B
:1002B00014FB00003503000070B504468569006832
:1002C000C10601D5302600E02026C00707D070BD4A
:1002D000D4E9012130469047206A401C20626D1EFF
:1002E000F6D570BD70B5044685690078C00707D1A2
:1002F00070BDD4E9012120209047206A401C206273
:100300006D1EF6D570BD70B50C460546012A05D0A8
:100310002878800600D5EA69002302E0012305E081
:100320005B1C934202D2E05C0028F9D1A869E61870
:10033000C01AA861286A184428622846FFF7BCFF43
:1003400004E0D5E9012114F8010B9047B442F8D339
:100350002846FFF7C7FF70BD70B504460D4621461D
:100360001068AFF300802188090502D50F4A7A444E
:1003700002E00E4A7A440E32002104F1240305E023
:1003800000F00F060009965D5E54491C0028F7D165
:1003900020780023000704D5702D02D009B1022374
:1003A00011322046BDE8704000F0A1B8721D000077
:1003B0002DE9F05F894604464FF0000ADFF824B1CA
:1003C000FB44C0F820A02046E168884700287DD083
:1003D000252806D0D4E901219047206A401C2062DC
:1003E000F1E700255F462046E16888472028064659
:1003F00007DB312E05D2B81910F8200C08B10543DF
:10040000F1E7A80701D525F00405C4F81CA00027D2
:10041000C4F818A02A2E09D0304601F04FFE38B398
:1004200004EB8708303EC8F8186019E059F8041B3F
:10043000204604EB87029161E1688847012F064658
:1004400018D1E069002820DA25F020051DE0D8F851
:10045000180000EB800006EB40003038C8F81800A8
:100460002046E1688847064601F028FE0028EED1C4
:10047000012F0AD02E2E08D12046E16888477F1C24
:100480000646022F45F02005C4DBA069002803DAE8
:10049000404245F00105A061E80701D025F01005B4
:1004A000A6B1A6F14100192802D8203645F400650E
:1004B0004A463146204625604D46FFF7ABFE60B107
:1004C000012807D0ED1D25F0070000E007E000F14E
:1004D000080978E705F1040975E730467AE7206AEC
:1004E000BDE8F09F481D00007047704770472DE938
:1004F000F0470D4699469246044600F124080168EB
:10050000880604D5E06921F01001216000E0012097
:10051000A84201DD471B00E00027A1697A1902EB20
:100520000900081AA0612078C00602D42046FFF70F
:10053000C3FE002608E0D4E901211AF8060090471E
:10054000206A401C761C20624E45F4DB2078C006F1
:100550000AD52046FFF7B0FE06E0D4E9012130209D
:100560009047206A401C2062381EA7F10107F4DC86
:1005700007E0D4E9012118F805009047206A401CE3
:100580002062281EA5F10105F3DC2046FFF7AAFE34
:100590002078000602D50220BDE8F0870120FBE7A5
:1005A00001694A1C02610878704700B58FB0CDE937
:1005B00001310021059105497944CDE90310114627
:1005C0006846FFF7F5FE0FB000BD0000E5FFFFFF36
:1005D0000A6802F8010B0A60704710B5436913B14D
:1005E000AFF3008001E0FFF78EFE012010BD12780E
:1005F00000F124010A7000224A700122EDE711681F
:100600004FF0FF32E9E7754600F02CF8AE460500E2
:100610006946534620F00700854618B020B5FFF71D
:1006200025FEBDE820404FF000064FF000074FF0D8
:1006300000084FF0000BAC46ACE8C009ACE8C009BC
:10064000ACE8C009ACE8C00921F007018D4670474D
:1006500010B50446AFF300802046BDE81040FFF718
:10066000F0BD000000487047380000200149182004
:10067000ABBEFEE72600020070470000FEE7000068
:1006800010B50024C4F2020420460521022200F025
:1006900065FA002846D02046052100F09FF9204643
:1006A0000521012200F0EEF940F23000C2F2000014
:1006B00002882046052100F0B3FA2046052100F00B
:1006C0009FF920460521012200F038FA00F0FCFCD9
:1006D00040F22E01C2F20001097840F2A402C2F2F7
:1006E00000020229107017D001291CD0D1B940F2A4
:1006F0009C00C2F200000078042813D8DFE800F064
:100700000329333D470040F2A500C2F20000007803
:1007100040B100F0A9FD10BDA4F578404FF4807100
:1007200000F08EFA10BD40F29D00C2F20000007889
:100730000428F7D8DFE800F003353F49530040F2C2
:10074000AA00C2F2000000780028EBD000F0F0FE12
:1007500010BD40F2A500C2F2000040780028E1D0B0
:1007600000F036FD10BD40F2A500C2F20000807816
:100770000028D7D000F0E6FC10BD40F2A500C2F280
:100780000000C0780028CDD000F0B2FD10BD40F2CE
:10079000A500C2F2000000790028C3D000F0EEFDF1
:1007A00010BD40F2AA00C2F2000040780028B9D083
:1007B00000F07EFE10BD40F2AA00C2F20000807878
:1007C0000028AFD000F030FE10BD40F2AA00C2F207
:1007D0000000C0780028A5D000F0ECFE10BD40F26B
:1007E000AA00C2F200000079002808BF10BD00F086
:1007F000F1FD10BD10B50024C4F20204204606210C
:10080000022200F0ABF9002808BF10BD20460621E7
:10081000012200F093F910BD70470000FEE70000D0
:10082000FEE70000704700007047000070470000BE
:10083000B0B501380024B4EB106F1CBF0120B0BD6F
:100840004EF21005CEF2000568600F2000F0A8F807
:100850000720AC6028602046B0BD000080B500F0E5
:10086000B1F880BD80B582B04EF68851CEF200015D
:10087000086840F4700241F20000C4F202000A600D
:10088000016841F00101016001688907FCD54168F8
:1008900041F08001416000210191019AFF2A06D8B0
:1008A000019A01320192019AB2F5807FF8D3426831
:1008B00042F09002426001910199FF2907D800BFE0
:1008C0000199013101910199B1F5807FF8D3416817
:1008D0004FF6FF7221F0030141600168CFF6F66226
:1008E000114001604FF41F01816000214160C1622D
:1008F000016821F48021016001F04EF84FF00060A2
:10090000002100F0FFFA02B080BD000010B540F2F7
:100910000044C4F200042046012101F075F90128C9
:1009200027D12046012101F06BF940F22E00C2F2DE
:100930000000007802281CD104F582304FF4807149
:1009400000F080F940F23200C2F200000078012885
:1009500009D0002818BF10BD0120802112220023D9
:1009600000F054FE10BD012080211222002300F06F
:100970004DFE10BDFEE70000002848BF704700F0A4
:100980001F01012202FA01F14EF280124009CEF25B
:10099000000242F82010BFF34F8FBFF36F8F7047F4
:1009A0004EF623510001CEF200010870704700009E
:1009B00040F29801C2F20001086000BF08680028F8
:1009C000FCD1704740F29800C2F200000168002993
:1009D00008BF70470168013901607047B0B50D4626
:1009E000044600F00FF948B105EB850004EB8000E8
:1009F000816821F001018160B0BD00BFFEE7000009
:100A0000B0B50D46044600F0FDF848B105EB850091
:100A100004EB8000816841F001018160B0BD00BF3E
:100A2000FEE70000B0B50D46044600F0EBF848B113
:100A300005EB850004EB8000816821F020018160D6
:100A4000B0BD00BFFEE70000B0B50D46044600F0A3
:100A5000D9F8A8B105EB850004EB8000816821F08E
:100A60000101816000218160C16001614161A800D4
:100A70000F21626801FA00F010436060B0BD00BF52
:100A8000FEE7000070B514460E46054600F0BAF8C1
:100A900030B1B000696804FA00F00843686070BDC6
:100AA000FEE7000070B59AB314460D46064600F006
:100AB000A9F878B305EB8500216806EB8000016199
:100AC000A1684161218AC1608168626821F47C511A
:100AD000E36866691143194331438160217E82686E
:100AE000012922F0400208BF40328260617E8268A4
:100AF000012922F0800208BF80328260A17E8268D4
:100B0000002922F0100218BF1032826070BD00BFB1
:100B1000FEE700BFFEE7000070B514460E4605462E
:100B200000F070F840B106EB860005EB80008168AC
:100B30002143816070BD00BFFEE7000070B5144620
:100B40000E46054600F05EF830B1B000696804FA60
:100B500000F00843686070BDFEE7000070B5144601
:100B60000D46064600F04EF8D0B1082C1AD80120E8
:100B7000A04010F48A7F15D005EB8501306806EBA4
:100B80008101AA0004FA02F28968104001EA040116
:100B900018BF0120002918BF0121084070BD00BF07
:100BA000FEE700BFFEE7000070B514460E4605469E
:100BB00000F028F830B106EB860005EB80004461B8
:100BC00070BD00BFFEE70000B0B50D46044600F062
:100BD00019F848B105EB850004EB8000816821F429
:100BE00080418160B0BD00BFFEE7000080B51120EC
:100BF0000021002200F02AF910200121002200F03B
:100C000025F980BD40F20042C4F20202801A18BFEA
:100C100001200022052938BF01221043704700003F
:100C200070B514460E460546FFF7ECFF30B106EBF3
:100C30008600A1B205EB8000C16070BDFEE7000038
:100C400041617047016170472DE9F047CF0601F01F
:100C50000F0C09D5042A05D1C26B4CF0030C1A43C2
:100C6000C26301E04CEA020C00F1100E00F1140A1C
:100C700000244FF001094FF00F0800270EE000BFDD
:100C8000166008FA04F225EA02020CFA04F52A4377
:100C900002600137082F04F104040CD009FA07F2AE
:100CA00012EA0306F5D0056828295246E8D04829FB
:100CB000E7D17246E4E7082400254FF001094FF020
:100CC0000F080FE0176008FA05F226EA02020CFA94
:100CD00005F6324342600134102C05F1040508BFCB
:100CE000BDE8F08709FA04F212EA0307F3D0466878
:100CF00028295246E6D04829E5D17246E2E70000AD
:100D00008068084018BF01207047000040F60004CA
:100D1000C4F2010400F044FE40F2026000F090F9D9
:100D200040F2046000F08CF920461021032240F2CA
:100D30008173FFF789FF204640F28171FFF780FF42
:100D400004F500652846102103220323FFF77CFFEA
:100D500028460321FFF776FF032000F0C9F9FF20A2
:100D600000F058FD4FF4A06000214FF0000900F0A2
:100D70004BFD4AF22010C0F2070000F051FD40F296
:100D80000008CFF6FE78002720460121FFF7B8FFC4
:100D9000D0B1C820FFF70CFE47B900F0C9FB2046D0
:100DA0004FF48061FFF74EFF012707E000F080FB62
:100DB00020464FF48061FFF743FF002720460121C2
:100DC000FFF79EFF0028F9D128460121FFF798FF81
:100DD00010BBC820FFF7ECFD5FFA89F0B0FA80F194
:100DE00000284FF0640046464FEA511904BFC8205E
:100DF0004FF4003600F00EFD4FF47A70002100F041
:100E000003FD304600F00CFD00F00EFB28460121EA
:100E1000FFF776FF0028F9D028460221FFF770FF80
:100E20000028B1D1C820FFF7C3FD00F0C3FB00BF0D
:100E300028460221FFF764FF0028F9D0A4E700004C
:100E400080B540B2FFF798FD80BD000070B5154633
:100E50004EF60C52CEF2000213680E4603F4E06127
:100E6000B1F5E06F044601D1042024E0106800F4DD
:100E7000E060B0F5C06F01D103201CE0106800F401
:100E8000E060B0F5A06F01D1022014E0106800F41A
:100E9000E060B0F5806F01D101200CE0106800F433
:100EA000E060B0F5407F01D1002004E04FF4A06085
:100EB00000F01EF8022006FA00F1C0F104000F2233
:100EC00022FA00F0284008434EF20011CEF2000151
:100ED000000144EA01021C2382F8000304F01F0011
:100EE000012203EAD40302FA00F0585070BD00005A
:100EF00040F080604EF60C5140F0FD70CEF20001E3
:100F0000086070474FF68072C1F6FF7211400843C7
:100F10004EF60851CEF200010860BFF34F8F7047C4
:100F200070B541F2040CC4F2020CDCF8002001465A
:100F300041F2002002F00C02C0F27A00082A0346B7
:100F40002CD1DCF8002040F6001ED203C0F23D0E8A
:100F50000DD5DCF82830DCF800505B0046F6004385
:100F6000C0F2DC2358BF0346AD0358BF9E46DCF8F1
:100F70000030DCF80050102404EAD555DCF80040BD
:100F8000C3F38343202202EA54622B441A44012310
:100F90000F2A38BF02231A4402FB0EF3DCF800408C
:100FA000DCF800E0DCF80020042912D8C4F30314B4
:100FB0001DA5C2F3C2222D5D1FA4A25C23FA05F574
:100FC00025FA02F2DFE801F003080A1C11001A46B4
:100FD00016E00022104670BD284670BDCEF30220F8
:100FE000205C25FA00F2104670BDDCF8D0108907AD
:100FF00006D0DCF8D0101A4601F00301012901D116
:10100000104670BDDCF8D01001F00301022902BFC8
:101010004FF40042104670BDDCF8D01001F003011F
:10102000032918BF002070BD000000000000000070
:10103000010203040607080900000000010203047E
:1010400041F2000300F01F018009C4F202034FF0D7
:10105000010CC2580CFA01F11143C1507047000055
:1010600041F2000300F01F018009C4F202034FF0B7
:10107000010CC2580CFA01F122EA0101C15070477B
:1010800041F2000300F01F018009C4F202034FF097
:10109000010CC2580CFA01F11143C1507047000015
:1010A00080B540F23200C2F200000078012807D07B
:1010B000002818BF80BD00F0DBFB00F089F880BD80
:1010C00000F0F6F980BD000010B540F2AF04C2F2A6
:1010D0000004A078412808D040F60000C4F20100C6
:1010E0008021FFF7AFFDFFF7DBFFA07810BD000008
:1010F00010B5044640F2A000C2F200000460FFF701
:1011000075FD40F21400C2F2000050F8240000F017
:101110003BFE40F23400C2F20000018840F2E100E0
:10112000C2F2000000F0F8FD40F23000C2F2000010
:10113000018840F2AF00C2F2000000F093FD00F021
:1011400075FB10BD80B540F2A500C2F200008178A9
:1011500002291DD001292DD0002918BF80BD40F2E1
:101160002E01C2F2000100220A7040F29C01C2F27C
:10117000000102220A7040F22C02C2F20002012198
:1011800012888170A0201021002300F083FA80BD16
:10119000002140F6070281709220C3F20002002174
:1011A000002300F0CFFA40F22E00C2F2000002212C
:1011B000017080BD40F22802C2F2000202211268D2
:1011C0008170A0201121002300F0BCFA80BD000036
:1011D00010B540F2A504C2F200046078032888BF6D
:1011E00010BDDFE800F002361A2000F041FB40F2AB
:1011F0002E00C2F200000021017040F29C00C2F2F9
:10120000000001210722017061709220C3F20002E8
:101210000021002300F096FA10BD032060708B209F
:10122000002100221BE0002060709020102141F678
:10123000A562002300F02EFA40F22E00C2F2000058
:101240000321017040F23200C2F20000022101705D
:1012500010BD02206070A020122141F6A56200237B
:1012600000F018FA10BD000080B540F2A500C2F2EF
:1012700000000178032988BF80BDDFE801F0022E5D
:101280001D2340F23201C2F2000100220A7040F236
:101290002E01C2F200010A7040F29C01C2F200016C
:1012A0000A700121022201708420C3F20002002191
:1012B000002300F047FA80BD032101708B2000213C
:1012C000012210E00021017040F22E00C2F2000065
:1012D0000221017000F0DCFA80BD02210170902033
:1012E000002141F6A562002300F0D4F980BD000082
:1012F00080B540F2A500C2F20000C17802291DD0DD
:1013000001292DD0002918BF80BD40F22E01C2F264
:10131000000100220A7040F29C01C2F20001032287
:101320000A7040F22C02C2F2000201211288C17040
:10133000A0201021002300F0ADF980BD002141F272
:101340000702C1709220C3F200020021002300F0C6
:10135000F9F940F22E00C2F200000221017080BDB6
:1013600040F22802C2F2000202211268C170A020DD
:101370001121002300F0E6F980BD000080B540F2A5
:10138000A500C2F200000179012919D0002918BF77
:1013900080BD40F22E01C2F2000100220A7040F22C
:1013A0009C01C2F2000104220A700121072201718E
:1013B0009220C3F200020021002300F0C3F980BD97
:1013C0000021017140F22E00C2F2000002210170E2
:1013D00080BD000080B540F2AA00C2F20000017991
:1013E000012917D0002918BF80BD40F22E01C2F29A
:1013F000000101220A7040F29D01C2F200010423A3
:101400000B700271A020152141F6A562002300F0A7
:1014100041F980BD0021017140F22E00C2F20000AE
:101420000321017080BD000080B540F2AA00C2F225
:101430000000817802291CD001292BD0002918BF77
:1014400080BD40F22E01C2F2000101230B7040F278
:101450009D01C2F2000102220A7040F22C01C2F288
:1014600000010A888370A0201021002300F012F9E7
:1014700080BD0021072281709220C3F2000200216A
:10148000002300F05FF940F22E00C2F200000321B9
:10149000017080BD40F22802C2F2000202211268EF
:1014A0008170A0201121002300F04CF980BD0000C4
:1014B00080B540F2AA00C2F200004178032988BF3B
:1014C00080BDDFE801F0022B0F1540F22E01C2F2C1
:1014D000000101220A7040F29D01C2F200010A706F
:1014E00042701DE0032141708B20002100221BE08F
:1014F000002141709020102141F6A562002300F0E8
:10150000C9F840F22E00C2F200000321017040F23F
:101510003200C2F200000221017080BD0221417040
:10152000A020122141F6A562002300F0B3F880BD8F
:1015300010B540F2AA04C2F200042078032888BF44
:1015400010BDDFE800F0022D1C2440F23200C2F290
:1015500000000121017040F22E00C2F20000017073
:1015600040F29D00C2F2000000220270217084202F
:1015700000214FF04052002300F0E4F810BD03209A
:1015800020708B2000210222002300F083F800202D
:10159000207040F22E00C2F200000321017010BD45
:1015A000022020709020002141F6A562002300F067
:1015B00071F810BD80B540F2AA00C2F20000C178F7
:1015C00001291AD0002918BF80BD40F22E01C2F2B5
:1015D000000101230B7040F29D01C2F200010322C1
:1015E0000A7040F22401C2F200010A68C370A02010
:1015F0001321002300F0A6F880BD0021C17040F245
:101600002E00C2F200000321017080BD2DE9F041DF
:1016100086B00646104698460C4600F00BFB40F29A
:101620000400C2F20000320910F80810825C06F0D3
:101630000F03C35C2509455D04F00F071144C05D2D
:1016400019442944084402210530CDE9021440F22E
:10165000E104C7B20320C2F20004049007A12046AF
:1016600004220123CDE900860597FEF711FE2046EE
:101670000B2100F033FB06B0BDE8F0812563256344
:1016800025582530325825632530325825632530BA
:10169000325800002DE9F04788B08246062098466F
:1016A0001446894600F0C6FA40F204000022C2F255
:1016B0000000002124FA02F303F00F03C35C04329C
:1016C000194489B2102AF5D110F808204FEA1A13EC
:1016D000C35C0AF00F06865D4FEA19151144455D9B
:1016E00009F00F071944C05D31442944084405300E
:1016F000C7B20320CDE9044040F2E1040221C2F266
:101700000004CDE9021908A1204604220123CDE9F5
:10171000008A0697FEF7BCFD20460F2100F0DEFA96
:1017200008B0BDE8F08700BF256325632558253044
:1017300032582563253032582530345825632530FA
:10174000325800002DE9F04389B00746062098463C
:101750001446894600F06EFA40F204000021C2F2FD
:101760000000ADF8221000BF24FA01F202F00F02CF
:10177000825CBDF8223004311A442029ADF82220C1
:10178000F2D13A0910F80810825C07F00F03C35C2D
:101790004FEA1916865D09F00F051144405D1944A2
:1017A000BDF822503144084428440530ADF82200E9
:1017B000BDF822000221C6B20320CDE9044040F268
:1017C000E104C2F20004CDE9021908A12046042276
:1017D0000123CDE900870696FEF75AFD2046132126
:1017E00000F07CFA09B0BDE8F08300BF25632563F3
:1017F0002558253032582563253032582530385841
:10180000256325303258000040F22801C2F2000161
:101810000860704740F22C01C2F200010880704756
:1018200040F22401C2F2000108607047B0B584B0F4
:1018300040F20170FFF704FC40F20044C4F20004DF
:10184000204600F0C3F86D46284600F0E9F944F25E
:101850004F600090002040F2CF71ADF8040002917B
:10186000ADF80C002046294600F05EF904B0B0BD8A
:1018700010B540F20044C4F20004204600F048F9DC
:101880002046012100F0B2F91D20FFF7D9FA10BD62
:1018900010B51D2002210022FFF7D8FA40F20044C3
:1018A000C4F200042046012100F0A6F9204600F011
:1018B00035F910BD41F20400C4F2020050F8041CD6
:1018C00041F4803140F8041C4FF6FE7150F8043C9E
:1018D0004A1E8A4203D213F400311146F6D050F862
:1018E000041C890301D400BFFEE742F20001C4F2E8
:1018F00002010A68042363F302020A6081694FF659
:10190000FF7241F0805181610168CBF2C3720160C6
:1019100001680160016841F480610160016821F49F
:1019200040310160016841F44031016001681140BB
:101930000160016841F0804141F44011016050F8BC
:10194000041C41F0807140F8041C00BF50F8041CD6
:101950008901FBD547F20001C4F200010A6842F494
:1019600080320A604A68D203FCD50A6842F4003229
:101970000A6000BF4A689203FCD5016821F00301A8
:101980000160016841F00201016000BF016801F0DF
:101990000C010829FAD1704780B5FFF78BFF80BD95
:1019A00080B540F20000C2F20000006844F6D35156
:1019B000C1F26201A0FB01018809FEF739FF00B105
:1019C000FEE70020FEF7ECFF80BD000010B541F6F9
:1019D000FF31C4F2000188421BDC40F6FF31C4F243
:1019E0000001884230DD41F2FF31C4F2000188423B
:1019F00051DC40F60041C4F2000188426AD041F255
:101A00000001C4F20001884240F0818040F20444A9
:101A100077E043F2FF31C4F20101884226DD44F64B
:101A2000FF71C4F20101884244DC43F20041C4F278
:101A30000101884251D044F60041C4F201018842BC
:101A400065D140F213345CE0B0F1804F48D040F2F1
:101A50000041C4F20001884245D040F60001C4F2C2
:101A60000001884253D140F202444AE041F600416D
:101A7000C4F20001884239D042F20001C4F20001F0
:101A8000884236D042F60041C4F2010188423ED17C
:101A900040F20B3435E041F20041C4F200018842CB
:101AA0002AD041F60001C4F2000188422FD140F251
:101AB000064426E045F20001C4F2010188421ED02E
:101AC00045F20041C4F20101884218BF10BD40F246
:101AD000153416E040F2034413E040F20D3410E0F8
:101AE0004FF480640DE040F201440AE040F2074404
:101AF00007E04FF4816404E040F2054401E04FF454
:101B000045742046FFF7BCFA2046FFF7A9FA10BD3E
:101B1000016821F00101016070470000016841F097
:101B2000010101607047000080B540F6FF330A886C
:101B3000C4F2000343F2004C9842C4F2010C8262EA
:101B40000FDCB0F1804F14D040F20043C4F2000328
:101B500098420ED040F60003C4F20003984208D029
:101B600017E040F60043C4F20003984218BF6045F6
:101B700034D1036823F0700303604B88026803F0DC
:101B800060031A4302608A88036802F010021A4355
:101B9000026041F20002D1F808E020F48063C4F250
:101BA00000029342C0F82CE009D0026822F440728F
:101BB00002608A89036802F440721A430260604539
:101BC00005D042F60042C4F20102904201D1897B65
:101BD0000163416941F00101416180BD42F600436A
:101BE000C4F201039842C4D0D3E70000C26822EADD
:101BF0000101C16070470000C2681143C1607047B5
:101C0000C943016170470000C26800690A4008408A
:101C100018BF0120002A18BF0122104070470000A1
:101C200000214FF6FF7201608180826081818173A3
:101C300070470000B0B50025C4F2020504462846EE
:101C40000521FEF7CBFE284605210122FEF71AFFEB
:101C5000284605212246FEF7E3FF28460521FEF728
:101C6000CFFEB0BD70B588B00024C4F202040D46AA
:101C7000064620460521FEF7E7FEA4F5DC310020EC
:101C8000A1F57F718DF81E00CDE9036001914FF43D
:101C9000807102904FF44050ADF81C10069001AADC
:101CA000204605210595FEF7FDFE20460521FEF79D
:101CB000B9FE20460521FEF787FF204605210222B6
:101CC000FEF72AFFA4F5DE30402100F047F9204658
:101CD0000521FEF795FE08B070BD000070B5002626
:101CE000C4F202060C46054630460621FEF776FE93
:101CF000304606212A46FEF757FF30460621224687
:101D0000FEF78EFF30460621FEF77AFEA6F5DE309E
:101D1000802100F037F970BD70B588B006464FF4E9
:101D2000A0600D46FFF78CF90024C4F2020420469F
:101D30000621FEF789FE012044F204418DF81E00C1
:101D40000020C4F20001CDE9040501914FF4807137
:101D500002904FF44050ADF81C10069001AA2046A6
:101D600006210396FEF79EFE204606210222FEF77C
:101D7000D3FE20460621FEF755FE20460621FEF73B
:101D800023FF08B070BD000070B5054640F2026048
:101D9000FFF756F940F21170FFF752F944F2004490
:101DA000C4F2000404F544463046182103220423FB
:101DB000FEF74AFF3046042103220823FEF744FFC2
:101DC000204600F087F82046294600F01BF8204600
:101DD000042100F019F92046082100F03FF92046BF
:101DE0004FF4806100F0F2F82046002100F01EF967
:101DF00020464FF4805100F043F9204600F0D6F819
:101E000070BD000070B5044644F6FF70C4F20000D7
:101E100047F200060D4684424FF00000C4F201066E
:101E200012DC44F20041C4F200018C421CD044F6A2
:101E30000001C4F200018C4216D044F60041C4F205
:101E400000018C4210D014E045F20001C4F2000100
:101E50008C4209D043F60001C4F201018C4205D046
:101E6000B44206D1042002E0022000E00320FFF784
:101E700057F8B44209D13168090410D400EB550079
:101E8000B0FBF5F000F00F0110E0E168090413D495
:101E900000EB5500B0FBF5F000F00F0113E040003F
:101EA00000EB5500B0FBF5F0C0F342014FF6F072C5
:101EB00010400844F06070BD400000EB5500B0FBDE
:101EC000F5F0C0F342014FF6F07210400844A060F4
:101ED00070BD000010B544F6FF71C4F200018842E5
:101EE00014DC44F20041C4F20001884224D044F6DC
:101EF0000001C4F20001884221D044F60041C4F23E
:101F00000001884229D140F2134420E045F200014B
:101F1000C4F20001884215D043F60001C4F2010169
:101F2000884212D047F20001C4F20101884218BF72
:101F300010BD4FF447740AE040F2114407E040F24C
:101F4000124404E040F2144401E040F20E34204612
:101F5000FFF796F82046FFF783F810BD47F2080216
:101F6000C4F20102A2F10803984205D1106820F0E2
:101F70004000084310607047426922F0400211435C
:101F80004161704747F20802C4F20102A2F108035E
:101F9000984205D1106820F0800008431060704717
:101FA000426922F0800211434161704747F200010B
:101FB000C4F20101884204D1086840F001000860C1
:101FC0007047C16841F40051C160704747F2000298
:101FD000C4F2010290420DD1106801F4C06120F0FA
:101FE00001001060106820F4C060106010680843A1
:101FF00010607047C26801F4C06122F4C062C26020
:10200000C2681143C160704747F20002C4F2010286
:10201000904205D11068890861F382001060704712
:10202000C268890861F38202C260704747F2000209
:10203000C4F20102904205D1106820F0010042F87C
:10204000040B01E000F11002106801F4405120F48B
:1020500040501060106808431060704747F200025B
:10206000C4F20102904205D11068C90861F3C300AF
:1020700010607047C268C90861F3C302C26070474C
:1020800047F20002C4F2010290420DD1106801F43F
:10209000805120F001001060106820F48050106022
:1020A0001068084310607047C26801F4805122F440
:1020B0008052C260C2681143C160704730380A283C
:1020C00001D20120704700207047F1EE100A4FF650
:1020D000FF71C0F2C03120EA010040F04070E1EE33
:1020E000100A70473031323334353637383941428F
:1020F000434445464030580030313233343536376A
:102100003839616263646566403078000400000815
:1021100000000000000000020001000010000000AC
:10212000402100080000002038000000DC01000809
:102130007821000838000020E0080000F8010008BD
:102140000095BA0A303132333435363738394142A6
:102150004344454680250000004B000000960000E7
:1021600000E10000E8030000E80300006400030051
:08217000320002003200000001
:04000005080001A14D
:00000001FF
