:020000040800F2
:1000000038090020510200083D08000835080008A2
:10001000390800087D0600088D090008000000006E
:10002000000000000000000000000000450800087B
:1000300031080008000000004108000875080008A9
:100040006B0200086B0200086B0200086B020008DC
:100050006B0200086B0200086B0200086B020008CC
:100060006B0200086B0200086B0200086B020008BC
:100070006B0200086B0200086B0200086B020008AC
:10008000810600080D0800086B0200086B020008DA
:100090006B0200086B0200086B0200086B0200088C
:1000A0006B0200086B0200086B0200086B0200087C
:1000B0006B020008250900086B0200086B020008AB
:1000C0006B0200086B0200086B0200086B0200085C
:1000D0006B0200086B0200086B0200086B0200084C
:1000E0006B0200086B0200086B0200086B0200083C
:1000F0006B0200086B0200086B0200086B0200082C
:100100006B0200086B0200086B0200086B0200081B
:100110006B0200086B0200086B0200086B0200080B
:100120006B0200086B0200086B0200086B020008FB
:100130000000000000000000000000006B0200084A
:100140006B0200086B0200086B0200080000000050
:10015000000000006B0200086B0200086B02000840
:100160006B0200086B0200080000000000000000A5
:100170006B0200086B020008000000000000000095
:1001800000000000000000006B0200086B02000885
:100190006B0200086B0200086B0200080000000000
:1001A00000F002F800F044F80AA090E8000C824445
:1001B0008344AAF10107DA4501D100F039F8AFF222
:1001C000090EBAE80F0013F0010F18BFFB1A43F035
:1001D000010318479C1C0000BC1C0000103A24BFFF
:1001E00078C878C1FAD8520724BF30C830C144BF9C
:1001F00004680C60704700000023002400250026DE
:10020000103A28BF78C1FBD8520728BF30C148BF79
:100210000B607047782900F09F80632900F0E78128
:10022000002070471FB501F0F8FD1FBD10B510BDCF
:1002300000F0E9F91146FFF7F5FF00F069FD00F065
:1002400007FA03B4FFF7F2FF03BC00F00FFA000057
:100250000948804709480047FEE7FEE7FEE7FEE75A
:10026000FEE7FEE7FEE7FEE7FEE7FEE70448054996
:10027000054A064B704700007D080008A1010008F0
:1002800038010020380900203805002038050020FA
:100290000FB41CB5074B06AA7B446946009005982D
:1002A00000F083F90020694600F092F91CBC5DF86B
:1002B00014FB00003503000070B504468569006832
:1002C000C10601D5302600E02026C00707D070BD4A
:1002D000D4E9012130469047206A401C20626D1EFF
:1002E000F6D570BD70B5044685690078C00707D1A2
:1002F00070BDD4E9012120209047206A401C206273
:100300006D1EF6D570BD70B50C460546012A05D0A8
:100310002878800600D5EA69002302E0012305E081
:100320005B1C934202D2E05C0028F9D1A869E61870
:10033000C01AA861286A184428622846FFF7BCFF43
:1003400004E0D5E9012114F8010B9047B442F8D339
:100350002846FFF7C7FF70BD70B504460D4621461D
:100360001068AFF300802188090502D50F4A7A444E
:1003700002E00E4A7A440E32002104F1240305E023
:1003800000F00F060009965D5E54491C0028F7D165
:1003900020780023000704D5702D02D009B1022374
:1003A00011322046BDE8704000F0A1B8C21A00002A
:1003B0002DE9F05F894604464FF0000ADFF824B1CA
:1003C000FB44C0F820A02046E168884700287DD083
:1003D000252806D0D4E901219047206A401C2062DC
:1003E000F1E700255F462046E16888472028064659
:1003F00007DB312E05D2B81910F8200C08B10543DF
:10040000F1E7A80701D525F00405C4F81CA00027D2
:10041000C4F818A02A2E09D0304601F0F7FC38B3F2
:1004200004EB8708303EC8F8186019E059F8041B3F
:10043000204604EB87029161E1688847012F064658
:1004400018D1E069002820DA25F020051DE0D8F851
:10045000180000EB800006EB40003038C8F81800A8
:100460002046E1688847064601F0D0FC0028EED11E
:10047000012F0AD02E2E08D12046E16888477F1C24
:100480000646022F45F02005C4DBA069002803DAE8
:10049000404245F00105A061E80701D025F01005B4
:1004A000A6B1A6F14100192802D8203645F400650E
:1004B0004A463146204625604D46FFF7ABFE60B107
:1004C000012807D0ED1D25F0070000E007E000F14E
:1004D000080978E705F1040975E730467AE7206AEC
:1004E000BDE8F09F981A00007047704770472DE9EB
:1004F000F0470D4699469246044600F124080168EB
:10050000880604D5E06921F01001216000E0012097
:10051000A84201DD471B00E00027A1697A1902EB20
:100520000900081AA0612078C00602D42046FFF70F
:10053000C3FE002608E0D4E901211AF8060090471E
:10054000206A401C761C20624E45F4DB2078C006F1
:100550000AD52046FFF7B0FE06E0D4E9012130209D
:100560009047206A401C2062381EA7F10107F4DC86
:1005700007E0D4E9012118F805009047206A401CE3
:100580002062281EA5F10105F3DC2046FFF7AAFE34
:100590002078000602D50220BDE8F0870120FBE7A5
:1005A00001694A1C02610878704700B58FB0CDE937
:1005B00001310021059105497944CDE90310114627
:1005C0006846FFF7F5FE0FB000BD0000E5FFFFFF36
:1005D0000A6802F8010B0A60704710B5436913B14D
:1005E000AFF3008001E0FFF78EFE012010BD12780E
:1005F00000F124010A7000224A700122EDE711681F
:100600004FF0FF32E9E7754600F02CF8AE460500E2
:100610006946534620F00700854618B020B5FFF71D
:1006200025FEBDE820404FF000064FF000074FF0D8
:1006300000084FF0000BAC46ACE8C009ACE8C009BC
:10064000ACE8C009ACE8C00921F007018D4670474D
:1006500010B50446AFF300802046BDE81040FFF718
:10066000F0BD000000487047280000200149182014
:10067000ABBEFEE72600020070470000FEE7000068
:1006800010B50024C4F2020420460521022200F025
:1006900067FA002847D02046052100F0A1F920463E
:1006A0000521012200F0F0F940F21400C2F200002E
:1006B00002882046052100F0B5FA2046052100F009
:1006C000A1F920460521012200F03AFA00F0DCFCF5
:1006D00040F2C700C2F200000078022817D00128BB
:1006E00022D000BB40F28C00C2F200000078042847
:1006F00019D8DFE800F0032F39434D0040F2C00065
:10070000C2F20000007870B100F07CFD10BD012045
:1007100080211222002300F025FEA4F578404FF43A
:10072000807100F08FFA10BD40F28D00C2F200001F
:1007300000780528F7D8DFE800F003353F49535E1D
:1007400040F2C800C2F2000000780028EBD000F0B0
:1007500059FD10BD40F2C000C2F2000040780028F0
:10076000E1D000F009FD10BD40F2C000C2F200006F
:1007700000790028D7D000F0B9FC10BD40F2C000CD
:10078000C2F2000040790028CDD000F079FD10BD04
:1007900040F2C000C2F2000080790028C3D000F00F
:1007A000B5FD10BD40F2C800C2F20000407800283C
:1007B000B9D000F027FD10BD40F2C800C2F2000021
:1007C00080780028AFD000F01DFD10BD40F2C800B9
:1007D000C2F20000C0780028A5D000F013FD10BDC3
:1007E00040F2C800C2F200004079002808BF10BDE6
:1007F00000F008FD10BD40F2C800C2F20000007910
:1008000000283FF490AF00F0FDFC10BD10B50024AF
:10081000C4F2020420460621022200F0A1F90028B9
:1008200008BF10BD20460621012200F089F910BD45
:1008300070470000FEE70000FEE700007047000080
:100840007047000070470000B0B501380024B4EBD9
:10085000106F1CBF0120B0BD4EF21005CEF2000596
:1008600068600F2000F0A8F80720AC6028602046E0
:10087000B0BD000080B500F0A7F880BD80B582B0A3
:100880004EF68851CEF20001086840F4700241F241
:100890000000C4F202000A60016841F00101016039
:1008A00001688907FCD5416841F080014160002161
:1008B0000191019AFF2A06D8019A01320192019A08
:1008C000B2F5807FF8D3426842F090024260019115
:1008D0000199FF2907D800BF0199013101910199C0
:1008E000B1F5807FF8D341684FF6FF7221F0030124
:1008F00041600168CFF6F662114001604FF41F01BC
:10090000816000214160C162016821F480210160A1
:1009100000F0EAFE4FF00060002100F0E7FA02B0BC
:1009200080BD0000B0B540F60004C4F20104A4F597
:1009300082352846012101F00FF8012825D12846EB
:10094000012101F005F840F2C700C2F20000017871
:10095000032908D0022918BFB0BD20464FF480718A
:1009600000F072F9B0BD0221017020464FF4807191
:1009700000F06AF9012080211222002300F0F2FC2D
:1009800020464FF4807100F05DF9B0BDFEE7000035
:10099000002848BF704700F01F01012202FA01F150
:1009A0004EF280124009CEF2000242F82010BFF34E
:1009B0004F8FBFF36F8F70474EF623510001CEF279
:1009C000000108707047000040F28800C2F2000089
:1009D0000168002908BF704701680139016070474C
:1009E000B0B50D46044600F00FF948B105EB85009F
:1009F00004EB8000816821F001018160B0BD00BF7F
:100A0000FEE70000B0B50D46044600F0FDF848B121
:100A100005EB850004EB8000816841F001018160F5
:100A2000B0BD00BFFEE70000B0B50D46044600F0C3
:100A3000EBF848B105EB850004EB8000816821F0FC
:100A400020018160B0BD00BFFEE70000B0B50D46DB
:100A5000044600F0D9F8A8B105EB850004EB80004E
:100A6000816821F00101816000218160C160016124
:100A70004161A8000F21626801FA00F01043606034
:100A8000B0BD00BFFEE7000070B514460E46054637
:100A900000F0BAF830B1B000696804FA00F0084319
:100AA000686070BDFEE7000070B59AB314460D464D
:100AB000064600F0A9F878B305EB8500216806EB3F
:100AC00080000161A1684161218AC160816862681A
:100AD00021F47C51E3686669114319433143816015
:100AE000217E8268012922F0400208BF40328260E4
:100AF000617E8268012922F0800208BF8032826014
:100B0000A17E8268002922F0100218BF1032826094
:100B100070BD00BFFEE700BFFEE7000070B51446E1
:100B20000E46054600F070F840B106EB860005EB76
:100B3000800081682143816070BD00BFFEE7000036
:100B400070B514460E46054600F05EF830B1B000B0
:100B5000696804FA00F00843686070BDFEE70000B1
:100B600070B514460D46064600F04EF8D0B1082C7C
:100B70001AD80120A04010F48A7F15D005EB85011A
:100B8000306806EB8101AA0004FA02F2896810407D
:100B900001EA040118BF0120002918BF0121084003
:100BA00070BD00BFFEE700BFFEE7000070B5144651
:100BB0000E46054600F028F830B106EB860005EB3E
:100BC0008000446170BD00BFFEE70000B0B50D4677
:100BD000044600F019F848B105EB850004EB8000ED
:100BE000816821F480418160B0BD00BFFEE7000054
:100BF00080B511200021002200F01CF910200121F5
:100C0000002200F017F980BD40F20042C4F2020257
:100C1000801A18BF01200022052938BF0122104385
:100C20007047000070B514460E460546FFF7ECFF0E
:100C300030B106EB8600A1B205EB8000C16070BD4B
:100C4000FEE7000041617047016170472DE9F04700
:100C5000CF0601F00F0C09D5042A05D1C26B4CF068
:100C6000030C1A43C26301E04CEA020C00F1100EBF
:100C700000F1140A00244FF001094FF00F0800277B
:100C80000EE000BF166008FA04F225EA02020CFA30
:100C900004F52A4302600137082F04F104040CD044
:100CA00009FA07F212EA0306F5D005682829524628
:100CB000E8D04829E7D17246E4E7082400254FF040
:100CC00001094FF00F080FE0176008FA05F226EA55
:100CD00002020CFA05F6324342600134102C05F191
:100CE000040508BFBDE8F08709FA04F212EA030719
:100CF000F3D0466828295246E6D04829E5D1724605
:100D0000E2E700008068084018BF0120704700003B
:100D100040F60004C4F2010400F0EAFC40F2026074
:100D200000F082F940F2046000F07EF920461021C4
:100D3000032240F28173FFF789FF204640F2817160
:100D4000FFF780FF04F500652846102103220323E6
:100D5000FFF77CFF28460321FFF776FF4FF4614041
:100D600000F0A4F9FF2000F003FC4FF4A060002184
:100D7000002600F0F5FB00F045FA002705E000BF73
:100D800028460221FFF7BEFF98B320460121FFF756
:100D9000B9FF78B120468021FFF756FF2046012198
:100DA000FFF7B0FF0028F9D120468021FFF74AFF66
:100DB00000F0E2F928460121FFF7A4FF0028DFD167
:100DC00046B920464FF48061FFF73EFF00F08EF9F0
:100DD000012607E000F09AFA20464FF48061FFF701
:100DE00031FF002628460121FFF78CFF0028F9D0AB
:100DF000C6E747B920464FF40071FFF725FF00F022
:100E00003FFA012708E000F081FA20464FF4007114
:100E1000FFF718FF002700BF28460221FFF772FFE7
:100E20000028F9D0B1E7000080B540B2FFF7B0FD6F
:100E300080BD000070B515464EF60C52CEF2000291
:100E400013680E4603F4E061B1F5E06F044601D18A
:100E5000042024E0106800F4E060B0F5C06F01D118
:100E600003201CE0106800F4E060B0F5A06F01D131
:100E7000022014E0106800F4E060B0F5806F01D14A
:100E800001200CE0106800F4E060B0F5407F01D173
:100E9000002004E04FF4A06000F01EF8022006FAE3
:100EA00000F1C0F104000F2222FA00F028400843AC
:100EB0004EF20011CEF20001000144EA01021C23AF
:100EC00082F8000304F01F00012203EAD40302FAAF
:100ED00000F0585070BD000040F080604EF60C519C
:100EE00040F0FD70CEF20001086070474FF680724E
:100EF000C1F6FF72114008434EF60851CEF20001D0
:100F00000860BFF34F8F704770B541F2040CC4F214
:100F1000020CDCF80020014641F2002002F00C0235
:100F2000C0F27A00082A03462CD1DCF8002040F6F3
:100F3000001ED203C0F23D0E0DD5DCF82830DCF8DF
:100F400000505B0046F60043C0F2DC2358BF034666
:100F5000AD0358BF9E46DCF80030DCF8005010248A
:100F600004EAD555DCF80040C3F38343202202EAAB
:100F700054622B441A4401230F2A38BF02231A4417
:100F800002FB0EF3DCF80040DCF800E0DCF80020A7
:100F9000042912D8C4F303141DA5C2F3C2222D5D87
:100FA0001FA4A25C23FA05F525FA02F2DFE801F09E
:100FB00003080A1C11001A4616E00022104670BDF4
:100FC000284670BDCEF30220205C25FA00F21046C0
:100FD00070BDDCF8D010890706D0DCF8D0101A46B6
:100FE00001F00301012901D1104670BDDCF8D010D9
:100FF00001F00301022902BF4FF40042104670BD08
:10100000DCF8D01001F00301032918BF002070BDE7
:1010100000000000000000000102030406070809A8
:10102000000000000102030441F2000300F01F0170
:101030008009C4F202034FF0010CC2580CFA01F10E
:101040001143C1507047000041F2000300F01F013E
:101050008009C4F202034FF0010CC2580CFA01F1EE
:1010600022EA0101C150704741F2000300F01F0164
:101070008009C4F202034FF0010CC2580CFA01F1CE
:101080001143C1507047000080B540F28E00C2F29B
:1010900000008078412808BF80BD40F60000C4F2FF
:1010A00001008021FFF7D0FD80BD000010B504468F
:1010B000FFF79EFD204600F00FFD40F22400C2F233
:1010C0000000018840F2CE00C2F2000000F0CCFC2B
:1010D00040F21400C2F20000018840F28E00C2F219
:1010E000000000F067FC00F049FA10BD80B540F246
:1010F000C000C2F20000017902291DD001292DD0C3
:10110000002918BF80BD40F2C701C2F200010022D1
:101110000A7040F28C01C2F2000102220A7040F211
:101120002002C2F20002012112880171A0201021C8
:10113000002300F05BF980BD002140F60702017139
:101140009220C3F200020021002300F0A7F940F230
:10115000C700C2F200000321017080BD40F21802F6
:10116000C2F20002022112680171A02010210023A6
:1011700000F094F980BD000010B540F2C004C2F246
:1011800000046078032888BF10BDDFE800F002305B
:101190001A2000F015FA40F2C700C2F20000002148
:1011A000017040F28C00C2F20000012107220170A0
:1011B00061709220C3F200020021002300F06EF95A
:1011C00010BD032060708B200021002215E000205C
:1011D00060709020102141F6A562002300F006F90E
:1011E00040F2C700C2F200000321017010BD0220CE
:1011F0006070A020122141F6A562002300F0F6F8ED
:1012000010BD000080B540F2C000C2F200000178BD
:10121000032988BF80BDDFE801F00229181E40F2D3
:10122000C701C2F2000100220A7040F28C01C2F232
:1012300000010A700121022201708420C3F2000221
:101240000021002300F02AF980BD032101708B20CA
:101250000021012210E00021017040F2C700C2F21B
:1012600000000321017000F0BBF980BD0221017074
:101270009020002141F6A562002300F0B7F880BD60
:1012800080B540F2C000C2F20000417902291DD0B1
:1012900001292DD0002918BF80BD40F2C701C2F23C
:1012A000000100220A7040F28C01C2F20001022209
:1012B0000A7040F22002C2F200020121128841713C
:1012C000A0201021002300F091F880BD002141F200
:1012D000070241719220C3F200020021002300F0B6
:1012E000DDF840F2C700C2F200000321017080BDAA
:1012F00040F21802C2F20002022112684171A020DD
:101300001021002300F0CAF880BD000080B540F233
:10131000C000C2F200008179012919D0002918BF4C
:1013200080BD40F2C701C2F2000100220A7040F203
:101330008C01C2F2000104220A700121072281718E
:101340009220C3F200020021002300F0A7F880BD24
:101350000021817140F2C700C2F200000321017038
:1013600080BD00002DE9F04186B006461046984643
:101370000C4600F007FB40F20400C2F20000320904
:1013800010F80810825C06F00F03C35C2509455D68
:1013900004F00F071144C05D194429440844022198
:1013A0000530CDE9021440F2CE04C7B20320C2F2E8
:1013B0000004049007A1204604220123CDE9008601
:1013C0000597FEF765FF20460A2100F02FFB06B0C7
:1013D000BDE8F08125632563255825303258256303
:1013E0002530325825632530325800002DE9F0476A
:1013F00088B08246062098461446894600F0C2FA14
:1014000040F204000022C2F20000002124FA02F39C
:1014100003F00F03C35C0432194489B2102AF5D1DA
:1014200010F808204FEA1A13C35C0AF00F06865D15
:101430004FEA19151144455D09F00F071944C05DC5
:101440003144294408440530C7B20320CDE90440A3
:1014500040F200140221C2F20004CDE9021908A1F1
:10146000204604220123CDE9008A0697FEF710FFEB
:1014700020460F2100F0DAFA08B0BDE8F08700BF7F
:101480002563256325582530325825632530325889
:101490002530345825632530325800002DE9F043BB
:1014A00089B00746062098461446894600F06AFA35
:1014B00040F204000021C2F20000ADF8221000BF8B
:1014C00024FA01F202F00F02825CBDF822300431EE
:1014D0001A442029ADF82220F2D13A0910F8081058
:1014E000825C07F00F03C35C4FEA1916865D09F0B2
:1014F0000F051144405D1944BDF8225031440844A1
:1015000028440530ADF82200BDF822000221C6B201
:101510000320CDE9044040F20014C2F20004CDE9FA
:10152000021908A1204604220123CDE9008706966E
:10153000FEF7AEFE2046132100F078FA09B0BDE8B0
:10154000F08300BF25632563255825303258256375
:101550002530325825303858256325303258000060
:1015600040F21802C2F20002C2E900017047000016
:1015700040F22001C2F2000108607047B0B584B0AB
:1015800040F20170FFF750FD40F20044C4F2000445
:10159000204600F0C3F86D46284600F0E9F944F211
:1015A0004F600090002040F2CF71ADF8040002912E
:1015B000ADF80C002046294600F05EF904B0B0BD3D
:1015C00010B540F20044C4F20004204600F048F98F
:1015D0002046012100F0B2F91D20FFF725FC10BDC7
:1015E00010B51D2002210022FFF724FC40F2004428
:1015F000C4F200042046012100F0A6F9204600F0C4
:1016000035F910BD41F20400C4F2020050F8041C88
:1016100041F4803140F8041C4FF6FE7150F8043C50
:101620004A1E8A4203D213F400311146F6D050F814
:10163000041C890301D400BFFEE742F20001C4F29A
:1016400002010A68042363F302020A6081694FF60B
:10165000FF7241F0805181610168CBF2C372016079
:1016600001680160016841F480610160016821F452
:1016700040310160016841F440310160016811406E
:101680000160016841F0804141F44011016050F86F
:10169000041C41F0807140F8041C00BF50F8041C89
:1016A0008901FBD547F20001C4F200010A6842F447
:1016B00080320A604A68D203FCD50A6842F40032DC
:1016C0000A6000BF4A689203FCD5016821F003015B
:1016D0000160016841F00201016000BF016801F092
:1016E0000C010829FAD1704780B5FFF78BFF80BD48
:1016F00080B540F20000C2F20000006844F6D35109
:10170000C1F26201A0FB01018809FFF79DF800B159
:10171000FEE70020FFF750F980BD000010B541F64C
:10172000FF31C4F2000188421BDC40F6FF31C4F2F5
:101730000001884230DD41F2FF31C4F200018842ED
:1017400051DC40F60041C4F2000188426AD041F207
:101750000001C4F20001884240F0818040F204445C
:1017600077E043F2FF31C4F20101884226DD44F6FE
:10177000FF71C4F20101884244DC43F20041C4F22B
:101780000101884251D044F60041C4F2010188426F
:1017900065D140F213345CE0B0F1804F48D040F2A4
:1017A0000041C4F20001884245D040F60001C4F275
:1017B0000001884253D140F202444AE041F6004120
:1017C000C4F20001884239D042F20001C4F20001A3
:1017D000884236D042F60041C4F2010188423ED12F
:1017E00040F20B3435E041F20041C4F2000188427E
:1017F0002AD041F60001C4F2000188422FD140F204
:10180000064426E045F20001C4F2010188421ED0E0
:1018100045F20041C4F20101884218BF10BD40F2F8
:10182000153416E040F2034413E040F20D3410E0AA
:101830004FF480640DE040F201440AE040F20744B6
:1018400007E04FF4816404E040F2054401E04FF406
:1018500045742046FFF708FC2046FFF7F5FB10BD56
:10186000016821F00101016070470000016841F04A
:10187000010101607047000080B540F6FF330A881F
:10188000C4F2000343F2004C9842C4F2010C82629D
:101890000FDCB0F1804F14D040F20043C4F20003DB
:1018A00098420ED040F60003C4F20003984208D0DC
:1018B00017E040F60043C4F20003984218BF6045A9
:1018C00034D1036823F0700303604B88026803F08F
:1018D00060031A4302608A88036802F010021A4308
:1018E000026041F20002D1F808E020F48063C4F203
:1018F00000029342C0F82CE009D0026822F4407242
:1019000002608A89036802F440721A4302606045EB
:1019100005D042F60042C4F20102904201D1897B17
:101920000163416941F00101416180BD42F600431C
:10193000C4F201039842C4D0D3E70000C26822EA8F
:101940000101C16070470000C2681143C160704767
:10195000C943016170470000C26800690A4008403D
:1019600018BF0120002A18BF012210407047000054
:1019700000214FF6FF720160818082608181817356
:1019800070470000B0B50025C4F2020504462846A1
:101990000521FFF725F8284605210122FFF774F8F5
:1019A000284605212246FFF73DF928460521FFF785
:1019B00029F8B0BD70B588B00024C4F202040D4609
:1019C000064620460521FFF741F8A4F5DC3100204A
:1019D000A1F57F718DF81E00CDE9036001914FF4F0
:1019E000807102904FF44050ADF81C10069001AA8F
:1019F000204605210595FFF757F820460521FFF7FA
:101A000013F820460521FFF7E1F8204605210222C0
:101A1000FFF784F8A4F5DE30402100F047F92046B6
:101A20000521FEF7EFFF08B070BD000070B500267D
:101A3000C4F202060C46054630460621FEF7D0FFEA
:101A4000304606212A46FFF7B1F8304606212246E5
:101A5000FFF7E8F830460621FEF7D4FFA6F5DE30A2
:101A6000802100F037F970BD70B588B006464FF49C
:101A7000A0600D46FFF7D8FA0024C4F20204204605
:101A80000621FEF7E3FF012044F204418DF81E0019
:101A90000020C4F20001CDE9040501914FF48071EA
:101AA00002904FF44050ADF81C10069001AA204659
:101AB00006210396FEF7F8FF204606210222FFF7D3
:101AC0002DF820460621FEF7AFFF20460621FFF73E
:101AD0007DF808B070BD000070B5054640F20260A8
:101AE000FFF7A2FA40F21170FFF79EFA44F20044A9
:101AF000C4F2000404F544463046182103220423AE
:101B0000FFF7A4F83046042103220823FFF79EF8CC
:101B1000204600F087F82046294600F01BF82046B2
:101B2000042100F019F92046082100F03FF9204671
:101B30004FF4806100F0F2F82046002100F01EF919
:101B400020464FF4805100F043F9204600F0D6F8CB
:101B500070BD000070B5044644F6FF70C4F200008A
:101B600047F200060D4684424FF00000C4F2010621
:101B700012DC44F20041C4F200018C421CD044F655
:101B80000001C4F200018C4216D044F60041C4F2B8
:101B900000018C4210D014E045F20001C4F20001B3
:101BA0008C4209D043F60001C4F201018C4205D0F9
:101BB000B44206D1042002E0022000E00320FFF737
:101BC000A3F9B44209D13168090410D400EB5500DF
:101BD000B0FBF5F000F00F0110E0E168090413D448
:101BE00000EB5500B0FBF5F000F00F0113E04000F2
:101BF00000EB5500B0FBF5F0C0F342014FF6F07278
:101C000010400844F06070BD400000EB5500B0FB90
:101C1000F5F0C0F342014FF6F07210400844A060A6
:101C200070BD000010B544F6FF71C4F20001884297
:101C300014DC44F20041C4F20001884224D044F68E
:101C40000001C4F20001884221D044F60041C4F2F0
:101C50000001884229D140F2134420E045F20001FE
:101C6000C4F20001884215D043F60001C4F201011C
:101C7000884212D047F20001C4F20101884218BF25
:101C800010BD4FF447740AE040F2114407E040F2FF
:101C9000124404E040F2144401E040F20E342046C5
:101CA000FFF7E2F92046FFF7CFF910BD47F208022F
:101CB000C4F20102A2F10803984205D1106820F095
:101CC0004000084310607047426922F0400211430F
:101CD0004161704747F20802C4F20102A2F1080311
:101CE000984205D1106820F08000084310607047CA
:101CF000426922F0800211434161704747F20001BE
:101D0000C4F20101884204D1086840F00100086073
:101D10007047C16841F40051C160704747F200024A
:101D2000C4F2010290420DD1106801F4C06120F0AC
:101D300001001060106820F4C06010601068084353
:101D400010607047C26801F4C06122F4C062C260D2
:101D5000C2681143C160704747F20002C4F2010239
:101D6000904205D11068890861F3820010607047C5
:101D7000C268890861F38202C260704747F20002BC
:101D8000C4F20102904205D1106820F0010042F82F
:101D9000040B01E000F11002106801F4405120F43E
:101DA00040501060106808431060704747F200020E
:101DB000C4F20102904205D11068C90861F3C30062
:101DC00010607047C268C90861F3C302C2607047FF
:101DD00047F20002C4F2010290420DD1106801F4F2
:101DE000805120F001001060106820F480501060D5
:101DF0001068084310607047C26801F4805122F4F3
:101E00008052C260C2681143C160704730380A28EE
:101E100001D20120704700207047F1EE100A4FF602
:101E2000FF71C0F2C03120EA010040F04070E1EEE5
:101E3000100A704730313233343536373839414241
:101E4000434445464030580030313233343536371C
:101E500038396162636465664030780004000008C8
:101E6000000000000000000200010000100000005F
:101E7000901E00080000002028000000DC0100087F
:101E8000B81E00082800002010090000F801000812
:101E90000095BA0A30313233343536373839414259
:101EA0004344454632000000E80300000000000003
:081EB000640000003200000094
:04000005080001A14D
:00000001FF
