:020000040800F2
:1000000038090020510200086D0800086508000842
:10001000690800087D060008BD090008000000000E
:10002000000000000000000000000000750800084B
:10003000610800080000000071080008A508000819
:100040006B0200086B0200086B0200086B020008DC
:100050006B0200086B0200086B0200086B020008CC
:100060006B0200086B0200086B0200086B020008BC
:100070006B0200086B0200086B0200086B020008AC
:10008000810600083D0800086B0200086B020008AA
:100090006B0200086B0200086B0200086B0200088C
:1000A0006B0200086B0200086B0200086B0200087C
:1000B0006B020008550900086B0200086B0200087B
:1000C0006B0200086B0200086B0200086B0200085C
:1000D0006B0200086B0200086B0200086B0200084C
:1000E0006B0200086B0200086B0200086B0200083C
:1000F0006B0200086B0200086B0200086B0200082C
:100100006B0200086B0200086B0200086B0200081B
:100110006B0200086B0200086B0200086B0200080B
:100120006B0200086B0200086B0200086B020008FB
:100130000000000000000000000000006B0200084A
:100140006B0200086B0200086B0200080000000050
:10015000000000006B0200086B0200086B02000840
:100160006B0200086B0200080000000000000000A5
:100170006B0200086B020008000000000000000095
:1001800000000000000000006B0200086B02000885
:100190006B0200086B0200086B0200080000000000
:1001A00000F002F800F044F80AA090E8000C824445
:1001B0008344AAF10107DA4501D100F039F8AFF222
:1001C000090EBAE80F0013F0010F18BFFB1A43F035
:1001D000010318475C1D00007C1D0000103A24BF7D
:1001E00078C878C1FAD8520724BF30C830C144BF9C
:1001F00004680C60704700000023002400250026DE
:10020000103A28BF78C1FBD8520728BF30C148BF79
:100210000B607047782900F09F80632900F0E78128
:10022000002070471FB501F058FE1FBD10B510BD6E
:1002300000F0E9F91146FFF7F5FF00F081FD00F04D
:1002400007FA03B4FFF7F2FF03BC00F00FFA000057
:100250000948804709480047FEE7FEE7FEE7FEE75A
:10026000FEE7FEE7FEE7FEE7FEE7FEE70448054996
:10027000054A064B70470000AD080008A1010008C0
:1002800038010020380900203805002038050020FA
:100290000FB41CB5074B06AA7B446946009005982D
:1002A00000F083F90020694600F092F91CBC5DF86B
:1002B00014FB00003503000070B504468569006832
:1002C000C10601D5302600E02026C00707D070BD4A
:1002D000D4E9012130469047206A401C20626D1EFF
:1002E000F6D570BD70B5044685690078C00707D1A2
:1002F00070BDD4E9012120209047206A401C206273
:100300006D1EF6D570BD70B50C460546012A05D0A8
:100310002878800600D5EA69002302E0012305E081
:100320005B1C934202D2E05C0028F9D1A869E61870
:10033000C01AA861286A184428622846FFF7BCFF43
:1003400004E0D5E9012114F8010B9047B442F8D339
:100350002846FFF7C7FF70BD70B504460D4621461D
:100360001068AFF300802188090502D50F4A7A444E
:1003700002E00E4A7A440E32002104F1240305E023
:1003800000F00F060009965D5E54491C0028F7D165
:1003900020780023000704D5702D02D009B1022374
:1003A00011322046BDE8704000F0A1B8821B000069
:1003B0002DE9F05F894604464FF0000ADFF824B1CA
:1003C000FB44C0F820A02046E168884700287DD083
:1003D000252806D0D4E901219047206A401C2062DC
:1003E000F1E700255F462046E16888472028064659
:1003F00007DB312E05D2B81910F8200C08B10543DF
:10040000F1E7A80701D525F00405C4F81CA00027D2
:10041000C4F818A02A2E09D0304601F057FD38B391
:1004200004EB8708303EC8F8186019E059F8041B3F
:10043000204604EB87029161E1688847012F064658
:1004400018D1E069002820DA25F020051DE0D8F851
:10045000180000EB800006EB40003038C8F81800A8
:100460002046E1688847064601F030FD0028EED1BD
:10047000012F0AD02E2E08D12046E16888477F1C24
:100480000646022F45F02005C4DBA069002803DAE8
:10049000404245F00105A061E80701D025F01005B4
:1004A000A6B1A6F14100192802D8203645F400650E
:1004B0004A463146204625604D46FFF7ABFE60B107
:1004C000012807D0ED1D25F0070000E007E000F14E
:1004D000080978E705F1040975E730467AE7206AEC
:1004E000BDE8F09F581B00007047704770472DE92A
:1004F000F0470D4699469246044600F124080168EB
:10050000880604D5E06921F01001216000E0012097
:10051000A84201DD471B00E00027A1697A1902EB20
:100520000900081AA0612078C00602D42046FFF70F
:10053000C3FE002608E0D4E901211AF8060090471E
:10054000206A401C761C20624E45F4DB2078C006F1
:100550000AD52046FFF7B0FE06E0D4E9012130209D
:100560009047206A401C2062381EA7F10107F4DC86
:1005700007E0D4E9012118F805009047206A401CE3
:100580002062281EA5F10105F3DC2046FFF7AAFE34
:100590002078000602D50220BDE8F0870120FBE7A5
:1005A00001694A1C02610878704700B58FB0CDE937
:1005B00001310021059105497944CDE90310114627
:1005C0006846FFF7F5FE0FB000BD0000E5FFFFFF36
:1005D0000A6802F8010B0A60704710B5436913B14D
:1005E000AFF3008001E0FFF78EFE012010BD12780E
:1005F00000F124010A7000224A700122EDE711681F
:100600004FF0FF32E9E7754600F02CF8AE460500E2
:100610006946534620F00700854618B020B5FFF71D
:1006200025FEBDE820404FF000064FF000074FF0D8
:1006300000084FF0000BAC46ACE8C009ACE8C009BC
:10064000ACE8C009ACE8C00921F007018D4670474D
:1006500010B50446AFF300802046BDE81040FFF718
:10066000F0BD000000487047280000200149182014
:10067000ABBEFEE72600020070470000FEE7000068
:1006800010B50024C4F2020420460521022200F025
:100690007FFA002848D02046052100F0B9F920460D
:1006A0000521012200F008FA40F21400C2F2000015
:1006B00002882046052100F0CDFA2046052100F0F1
:1006C000B9F920460521012200F052FA00F0FEFCA3
:1006D00040F2C700C2F200000078022818D00128BA
:1006E00023D008BB40F28C00C2F20000007806283C
:1006F0001AD8DFE800F004636D77818C970040F230
:10070000C000C2F20000007870B100F083FD10BD9F
:10071000012080211222002300F084FEA4F57840FD
:100720004FF4807100F0A6FA10BD40F28D00C2F2C5
:10073000000000780528F7D8DFE800F0030D172146
:100740002B3640F2C800C2F2000000780028EBD03F
:1007500000F060FD10BD40F2C800C2F20000407819
:100760000028E1D000F056FD10BD40F2C800C2F2F2
:10077000000080780028D7D000F04CFD10BD40F27A
:10078000C800C2F20000C0780028CDD000F042FDC1
:1007900010BD40F2C800C2F200004079002808BF36
:1007A00010BD00F037FD10BD40F2C800C2F20000DD
:1007B00000790028B8D000F02DFD10BD40F2C00037
:1007C000C2F2000040780028AED000F0DDFC10BD81
:1007D00040F2C000C2F2000080780028A4D000F0EF
:1007E000C7FD10BD40F2C000C2F20000C078002872
:1007F0009AD000F08FFD10BD40F2C000C2F20000A0
:10080000007900283FF490AF00F092FC10BD40F258
:10081000C000C2F20000407900283FF485AF00F02C
:100820004DFD10BD40F2C000C2F2000080790028EA
:100830003FF47AAF00F0CAFD10BD000010B50024EF
:10084000C4F2020420460621022200F0A1F9002889
:1008500008BF10BD20460621012200F089F910BD15
:1008600070470000FEE70000FEE700007047000050
:100870007047000070470000B0B501380024B4EBA9
:10088000106F1CBF0120B0BD4EF21005CEF2000566
:1008900068600F2000F0A8F80720AC6028602046B0
:1008A000B0BD000080B500F0A7F880BD80B582B073
:1008B0004EF68851CEF20001086840F4700241F211
:1008C0000000C4F202000A60016841F00101016009
:1008D00001688907FCD5416841F080014160002131
:1008E0000191019AFF2A06D8019A01320192019AD8
:1008F000B2F5807FF8D3426842F0900242600191E5
:100900000199FF2907D800BF01990131019101998F
:10091000B1F5807FF8D341684FF6FF7221F00301F3
:1009200041600168CFF6F662114001604FF41F018B
:10093000816000214160C162016821F48021016071
:1009400000F032FF4FF00060002100F0F1FA02B039
:1009500080BD0000B0B540F60004C4F20104A4F567
:1009600082352846012101F057F8012825D1284673
:10097000012101F04DF840F2C700C2F200000178F9
:10098000032908D0022918BFB0BD20464FF480715A
:1009900000F072F9B0BD0221017020464FF4807161
:1009A00000F06AF9012080211222002300F03AFDB4
:1009B00020464FF4807100F05DF9B0BDFEE7000005
:1009C000002848BF704700F01F01012202FA01F120
:1009D0004EF280124009CEF2000242F82010BFF31E
:1009E0004F8FBFF36F8F70474EF623510001CEF249
:1009F000000108707047000040F28800C2F2000059
:100A00000168002908BF704701680139016070471B
:100A1000B0B50D46044600F00FF948B105EB85006E
:100A200004EB8000816821F001018160B0BD00BF4E
:100A3000FEE70000B0B50D46044600F0FDF848B1F1
:100A400005EB850004EB8000816841F001018160C5
:100A5000B0BD00BFFEE70000B0B50D46044600F093
:100A6000EBF848B105EB850004EB8000816821F0CC
:100A700020018160B0BD00BFFEE70000B0B50D46AB
:100A8000044600F0D9F8A8B105EB850004EB80001E
:100A9000816821F00101816000218160C1600161F4
:100AA0004161A8000F21626801FA00F01043606004
:100AB000B0BD00BFFEE7000070B514460E46054607
:100AC00000F0BAF830B1B000696804FA00F00843E9
:100AD000686070BDFEE7000070B59AB314460D461D
:100AE000064600F0A9F878B305EB8500216806EB0F
:100AF00080000161A1684161218AC16081686268EA
:100B000021F47C51E36866691143194331438160E4
:100B1000217E8268012922F0400208BF40328260B3
:100B2000617E8268012922F0800208BF80328260E3
:100B3000A17E8268002922F0100218BF1032826064
:100B400070BD00BFFEE700BFFEE7000070B51446B1
:100B50000E46054600F070F840B106EB860005EB46
:100B6000800081682143816070BD00BFFEE7000006
:100B700070B514460E46054600F05EF830B1B00080
:100B8000696804FA00F00843686070BDFEE7000081
:100B900070B514460D46064600F04EF8D0B1082C4C
:100BA0001AD80120A04010F48A7F15D005EB8501EA
:100BB000306806EB8101AA0004FA02F2896810404D
:100BC00001EA040118BF0120002918BF01210840D3
:100BD00070BD00BFFEE700BFFEE7000070B5144621
:100BE0000E46054600F028F830B106EB860005EB0E
:100BF0008000446170BD00BFFEE70000B0B50D4647
:100C0000044600F019F848B105EB850004EB8000BC
:100C1000816821F480418160B0BD00BFFEE7000023
:100C200080B511200021002200F026F910200121BA
:100C3000002200F021F980BD40F20042C4F202021D
:100C4000801A18BF01200022052938BF0122104355
:100C50007047000070B514460E460546FFF7ECFFDE
:100C600030B106EB8600A1B205EB8000C16070BD1B
:100C7000FEE7000041617047016170472DE9F047D0
:100C8000CF0601F00F0C09D5042A05D1C26B4CF038
:100C9000030C1A43C26301E04CEA020C00F1100E8F
:100CA00000F1140A00244FF001094FF00F0800274B
:100CB0000EE000BF166008FA04F225EA02020CFA00
:100CC00004F52A4302600137082F04F104040CD014
:100CD00009FA07F212EA0306F5D0056828295246F8
:100CE000E8D04829E7D17246E4E7082400254FF010
:100CF00001094FF00F080FE0176008FA05F226EA25
:100D000002020CFA05F6324342600134102C05F160
:100D1000040508BFBDE8F08709FA04F212EA0307E8
:100D2000F3D0466828295246E6D04829E5D17246D4
:100D3000E2E700008068084018BF0120704700000B
:100D400040F60004C4F2010400F032FD40F20260FB
:100D500000F08CF940F2046000F088F92046102180
:100D6000032240F28173FFF789FF204640F2817130
:100D7000FFF780FF04F500652846102103220323B6
:100D8000FFF77CFF28460321FFF776FF4FF4614011
:100D900000F0AEF9FF2000F04BFC4FF40070002192
:100DA00000F03EFC00F036FA20460121FFF7C2FFBA
:100DB00080B120468021FFF75FFF00BF2046012160
:100DC000FFF7B8FF0028F9D120468021FFF752FF36
:100DD00000F0DAF928460121FFF7ACFFF8B9204608
:100DE0004FF48061FFF748FF782000F021FC4FF4BA
:100DF000A060002100F014FC00F0BAFA00F08AFABA
:100E000000F096F928460121FFF794FF0028F9D059
:100E100000F0DCFA20464FF48061FFF72BFF2846F4
:100E20000221FFF787FF0028BED120464FF4007152
:100E3000FFF722FF3C2000F0FBFB4FF4A0600021F5
:100E400000F0EEFB00F094FA00F064FA00F036FADD
:100E500028460221FFF76EFF0028F9D000F0B6FA0D
:100E600020464FF40071FFF705FF9DE780B540B2C3
:100E7000FFF7A6FD80BD000070B515464EF60C527A
:100E8000CEF2000213680E4603F4E061B1F5E06FA4
:100E9000044601D1042024E0106800F4E060B0F5BD
:100EA000C06F01D103201CE0106800F4E060B0F5D1
:100EB000A06F01D1022014E0106800F4E060B0F5EA
:100EC000806F01D101200CE0106800F4E060B0F503
:100ED000407F01D1002004E04FF4A06000F01EF834
:100EE000022006FA00F1C0F104000F2222FA00F0FD
:100EF000284008434EF20011CEF20001000144EAFE
:100F000001021C2382F8000304F01F00012203EAFF
:100F1000D40302FA00F0585070BD000040F0806029
:100F20004EF60C5140F0FD70CEF2000108607047A3
:100F30004FF68072C1F6FF72114008434EF6085119
:100F4000CEF200010860BFF34F8F704770B541F2D9
:100F5000040CC4F2020CDCF80020014641F200202F
:100F600002F00C02C0F27A00082A03462CD1DCF809
:100F7000002040F6001ED203C0F23D0E0DD5DCF875
:100F80002830DCF800505B0046F60043C0F2DC235A
:100F900058BF0346AD0358BF9E46DCF80030DCF86E
:100FA0000050102404EAD555DCF80040C3F3834315
:100FB000202202EA54622B441A4401230F2A38BF2C
:100FC00002231A4402FB0EF3DCF80040DCF800E0D8
:100FD000DCF80020042912D8C4F303141DA5C2F3C1
:100FE000C2222D5D1FA4A25C23FA05F525FA02F2A8
:100FF000DFE801F003080A1C11001A4616E000227F
:10100000104670BD284670BDCEF30220205C25FA44
:1010100000F2104670BDDCF8D010890706D0DCF86D
:10102000D0101A4601F00301012901D1104670BD0C
:10103000DCF8D01001F00301022902BF4FF4004296
:10104000104670BDDCF8D01001F00301032918BF71
:10105000002070BD00000000000000000102030439
:1010600006070809000000000102030441F2000322
:1010700000F01F018009C4F202034FF0010CC258B6
:101080000CFA01F11143C1507047000041F2000316
:1010900000F01F018009C4F202034FF0010CC25896
:1010A0000CFA01F122EA0101C150704741F200033C
:1010B00000F01F018009C4F202034FF0010CC25876
:1010C0000CFA01F11143C1507047000080B540F2A5
:1010D0008E00C2F200008078412808BF80BD40F633
:1010E0000000C4F201008021FFF7C6FD80BD0000B2
:1010F00010B50446FFF794FD204600F04DFD40F288
:101100002400C2F20000018840F2CE00C2F20000CA
:1011100000F00AFD40F21400C2F20000018840F223
:101120008E00C2F2000000F0A5FC00F087FA10BDAE
:1011300080B540F2C000C2F20000017901291AD046
:10114000002918BF80BD40F2C701C2F20001002291
:101150000A7040F28C01C2F2000104220A700121DF
:1011600040F6070201719220C3F200020021002321
:1011700000F0F4F980BD0021017140F2C700C2F215
:1011800000000321017080BD10B540F2C004C2F21E
:1011900000046078032888BF10BDDFE800F002304B
:1011A0001A2000F06DFA40F2C700C2F200000021E0
:1011B000017040F28C00C2F2000001210722017090
:1011C00061709220C3F200020021002300F0C6F9F2
:1011D00010BD032060708B200021002215E000204C
:1011E00060709020102141F6A562002300F05EF9A6
:1011F00040F2C700C2F200000321017010BD0220BE
:101200006070A020122141F6A562002300F04EF983
:1012100010BD000080B540F2C000C2F200000178AD
:10122000042988BF80BDDFE801F0031920263300C0
:1012300040F2C701C2F2000100220A7040F28C01A4
:10124000C2F200010A700121022201708420C3F25F
:1012500000020021002300F081F980BD022101700D
:101260009020002141F6A5620EE0032101708B2041
:101270000021012208E040F22002C2F20002042113
:1012800012880170A0201021002300F00FF980BD0A
:1012900040F21802C2F20002002112680170A02080
:1012A0001021002300F05AF940F2C700C2F20000FA
:1012B0000321017000F0F4F980BD000080B540F218
:1012C000C000C2F20000417901291AD0002918BFDC
:1012D00080BD40F2C701C2F2000100220A7040F254
:1012E0008C01C2F2000105220A70012141F20702BD
:1012F00041719220C3F200020021002300F02EF978
:1013000080BD0021417140F2C700C2F200000321FC
:10131000017080BD80B540F2C000C2F20000C1780B
:1013200001291BD0002918BF80BD40F2C701C2F2BD
:10133000000100220A7040F28C01C2F20001032277
:101340000A7040F21802C2F2000201211268C17054
:10135000A0201021002300F001F980BD0021C17000
:1013600040F2C700C2F200000321017080BD0000FE
:1013700080B540F2C000C2F20000817801291BD084
:10138000002918BF80BD40F2C701C2F2000100224F
:101390000A7040F28C01C2F2000102220A7040F28F
:1013A0002002C2F20002012112888170A0201021C7
:1013B000002300F07BF880BD0021817040F2C7005F
:1013C000C2F200000321017080BD000080B540F230
:1013D000C000C2F200008179012919D0002918BF8C
:1013E00080BD40F2C701C2F2000100220A7040F243
:1013F0008C01C2F2000106220A70012107228171CC
:101400009220C3F200020021002300F0A7F880BD63
:101410000021817140F2C700C2F200000321017077
:1014200080BD00002DE9F04186B006461046984682
:101430000C4600F007FB40F20400C2F20000320943
:1014400010F80810825C06F00F03C35C2509455DA7
:1014500004F00F071144C05D1944294408440221D7
:101460000530CDE9021440F2CE04C7B20320C2F227
:101470000004049007A1204604220123CDE9008640
:101480000597FEF705FF20460A2100F02FFB06B066
:10149000BDE8F08125632563255825303258256342
:1014A0002530325825632530325800002DE9F047A9
:1014B00088B08246062098461446894600F0C2FA53
:1014C00040F204000022C2F20000002124FA02F3DC
:1014D00003F00F03C35C0432194489B2102AF5D11A
:1014E00010F808204FEA1A13C35C0AF00F06865D55
:1014F0004FEA19151144455D09F00F071944C05D05
:101500003144294408440530C7B20320CDE90440E2
:1015100040F200140221C2F20004CDE9021908A130
:10152000204604220123CDE9008A0697FEF7B0FE8B
:1015300020460F2100F0DAFA08B0BDE8F08700BFBE
:1015400025632563255825303258256325303258C8
:101550002530345825632530325800002DE9F043FA
:1015600089B00746062098461446894600F06AFA74
:1015700040F204000021C2F20000ADF8221000BFCA
:1015800024FA01F202F00F02825CBDF8223004312D
:101590001A442029ADF82220F2D13A0910F8081097
:1015A000825C07F00F03C35C4FEA1916865D09F0F1
:1015B0000F051144405D1944BDF8225031440844E0
:1015C00028440530ADF82200BDF822000221C6B241
:1015D0000320CDE9044040F20014C2F20004CDE93A
:1015E000021908A1204604220123CDE900870696AE
:1015F000FEF74EFE2046132100F078FA09B0BDE850
:10160000F08300BF256325632558253032582563B4
:10161000253032582530385825632530325800009F
:1016200040F21802C2F20002C2E900017047000055
:1016300040F22001C2F2000108607047B0B584B0EA
:1016400040F20170FFF712FD40F20044C4F20004C2
:10165000204600F0C3F86D46284600F0E9F944F250
:101660004F600090002040F2CF71ADF8040002916D
:10167000ADF80C002046294600F05EF904B0B0BD7C
:1016800010B540F20044C4F20004204600F048F9CE
:101690002046012100F0B2F91D20FFF7E7FB10BD45
:1016A00010B51D2002210022FFF7E6FB40F20044A6
:1016B000C4F200042046012100F0A6F9204600F003
:1016C00035F910BD41F20400C4F2020050F8041CC8
:1016D00041F4803140F8041C4FF6FE7150F8043C90
:1016E0004A1E8A4203D213F400311146F6D050F854
:1016F000041C890301D400BFFEE742F20001C4F2DA
:1017000002010A68042363F302020A6081694FF64A
:10171000FF7241F0805181610168CBF2C3720160B8
:1017200001680160016841F480610160016821F491
:1017300040310160016841F44031016001681140AD
:101740000160016841F0804141F44011016050F8AE
:10175000041C41F0807140F8041C00BF50F8041CC8
:101760008901FBD547F20001C4F200010A6842F486
:1017700080320A604A68D203FCD50A6842F400321B
:101780000A6000BF4A689203FCD5016821F003019A
:101790000160016841F00201016000BF016801F0D1
:1017A0000C010829FAD1704780B5FFF78BFF80BD87
:1017B00080B540F20000C2F20000006844F6D35148
:1017C000C1F26201A0FB01018809FFF755F800B1E1
:1017D000FEE70020FFF708F980BD000010B541F6D4
:1017E000FF31C4F2000188421BDC40F6FF31C4F235
:1017F0000001884230DD41F2FF31C4F2000188422D
:1018000051DC40F60041C4F2000188426AD041F246
:101810000001C4F20001884240F0818040F204449B
:1018200077E043F2FF31C4F20101884226DD44F63D
:10183000FF71C4F20101884244DC43F20041C4F26A
:101840000101884251D044F60041C4F201018842AE
:1018500065D140F213345CE0B0F1804F48D040F2E3
:101860000041C4F20001884245D040F60001C4F2B4
:101870000001884253D140F202444AE041F600415F
:10188000C4F20001884239D042F20001C4F20001E2
:10189000884236D042F60041C4F2010188423ED16E
:1018A00040F20B3435E041F20041C4F200018842BD
:1018B0002AD041F60001C4F2000188422FD140F243
:1018C000064426E045F20001C4F2010188421ED020
:1018D00045F20041C4F20101884218BF10BD40F238
:1018E000153416E040F2034413E040F20D3410E0EA
:1018F0004FF480640DE040F201440AE040F20744F6
:1019000007E04FF4816404E040F2054401E04FF445
:1019100045742046FFF7CAFB2046FFF7B7FB10BD12
:10192000016821F00101016070470000016841F089
:10193000010101607047000080B540F6FF330A885E
:10194000C4F2000343F2004C9842C4F2010C8262DC
:101950000FDCB0F1804F14D040F20043C4F200031A
:1019600098420ED040F60003C4F20003984208D01B
:1019700017E040F60043C4F20003984218BF6045E8
:1019800034D1036823F0700303604B88026803F0CE
:1019900060031A4302608A88036802F010021A4347
:1019A000026041F20002D1F808E020F48063C4F242
:1019B00000029342C0F82CE009D0026822F4407281
:1019C00002608A89036802F440721A43026060452B
:1019D00005D042F60042C4F20102904201D1897B57
:1019E0000163416941F00101416180BD42F600435C
:1019F000C4F201039842C4D0D3E70000C26822EACF
:101A00000101C16070470000C2681143C1607047A6
:101A1000C943016170470000C26800690A4008407C
:101A200018BF0120002A18BF012210407047000093
:101A300000214FF6FF720160818082608181817395
:101A400070470000B0B50025C4F2020504462846E0
:101A50000521FEF7DDFF284605210122FFF72CF8BE
:101A6000284605212246FFF7F5F828460521FEF70E
:101A7000E1FFB0BD70B588B00024C4F202040D4689
:101A8000064620460521FEF7F9FFA4F5DC310020CB
:101A9000A1F57F718DF81E00CDE9036001914FF42F
:101AA000807102904FF44050ADF81C10069001AACE
:101AB000204605210595FFF70FF820460521FEF782
:101AC000CBFF20460521FFF799F820460521022289
:101AD000FFF73CF8A4F5DE30402100F047F920463E
:101AE0000521FEF7A7FF08B070BD000070B5002605
:101AF000C4F202060C46054630460621FEF788FF72
:101B0000304606212A46FFF769F83046062122466C
:101B1000FFF7A0F830460621FEF78CFFA6F5DE3071
:101B2000802100F037F970BD70B588B006464FF4DB
:101B3000A0600D46FFF79AFA0024C4F20204204682
:101B40000621FEF79BFF012044F204418DF81E00A0
:101B50000020C4F20001CDE9040501914FF4807129
:101B600002904FF44050ADF81C10069001AA204698
:101B700006210396FEF7B0FF204606210222FEF75B
:101B8000E5FF20460621FEF767FF20460621FFF706
:101B900035F808B070BD000070B5054640F202602F
:101BA000FFF764FA40F21170FFF760FA44F2004464
:101BB000C4F2000404F544463046182103220423ED
:101BC000FFF75CF83046042103220823FFF756F89C
:101BD000204600F087F82046294600F01BF82046F2
:101BE000042100F019F92046082100F03FF92046B1
:101BF0004FF4806100F0F2F82046002100F01EF959
:101C000020464FF4805100F043F9204600F0D6F80A
:101C100070BD000070B5044644F6FF70C4F20000C9
:101C200047F200060D4684424FF00000C4F2010660
:101C300012DC44F20041C4F200018C421CD044F694
:101C40000001C4F200018C4216D044F60041C4F2F7
:101C500000018C4210D014E045F20001C4F20001F2
:101C60008C4209D043F60001C4F201018C4205D038
:101C7000B44206D1042002E0022000E00320FFF776
:101C800065F9B44209D13168090410D400EB55005C
:101C9000B0FBF5F000F00F0110E0E168090413D487
:101CA00000EB5500B0FBF5F000F00F0113E0400031
:101CB00000EB5500B0FBF5F0C0F342014FF6F072B7
:101CC00010400844F06070BD400000EB5500B0FBD0
:101CD000F5F0C0F342014FF6F07210400844A060E6
:101CE00070BD000010B544F6FF71C4F200018842D7
:101CF00014DC44F20041C4F20001884224D044F6CE
:101D00000001C4F20001884221D044F60041C4F22F
:101D10000001884229D140F2134420E045F200013D
:101D2000C4F20001884215D043F60001C4F201015B
:101D3000884212D047F20001C4F20101884218BF64
:101D400010BD4FF447740AE040F2114407E040F23E
:101D5000124404E040F2144401E040F20E34204604
:101D6000FFF7A4F92046FFF791F910BD47F20802EA
:101D7000C4F20102A2F10803984205D1106820F0D4
:101D80004000084310607047426922F0400211434E
:101D90004161704747F20802C4F20102A2F1080350
:101DA000984205D1106820F0800008431060704709
:101DB000426922F0800211434161704747F20001FD
:101DC000C4F20101884204D1086840F001000860B3
:101DD0007047C16841F40051C160704747F200028A
:101DE000C4F2010290420DD1106801F4C06120F0EC
:101DF00001001060106820F4C06010601068084393
:101E000010607047C26801F4C06122F4C062C26011
:101E1000C2681143C160704747F20002C4F2010278
:101E2000904205D11068890861F382001060704704
:101E3000C268890861F38202C260704747F20002FB
:101E4000C4F20102904205D1106820F0010042F86E
:101E5000040B01E000F11002106801F4405120F47D
:101E600040501060106808431060704747F200024D
:101E7000C4F20102904205D11068C90861F3C300A1
:101E800010607047C268C90861F3C302C26070473E
:101E900047F20002C4F2010290420DD1106801F431
:101EA000805120F001001060106820F48050106014
:101EB0001068084310607047C26801F4805122F432
:101EC0008052C260C2681143C160704730380A282E
:101ED00001D20120704700207047F1EE100A4FF642
:101EE000FF71C0F2C03120EA010040F04070E1EE25
:101EF000100A704730313233343536373839414281
:101F0000434445464030580030313233343536375B
:101F10003839616263646566403078000400000807
:101F2000000000000000000200010000100000009E
:101F3000501F00080000002028000000DC010008FD
:101F4000781F00082800002010090000F801000890
:101F50000095BA0A30313233343536373839414298
:101F60004344454632000000E80300000000000042
:081F70006400000032000000D3
:04000005080001A14D
:00000001FF
