:020000040800F2
:100000003009002051020008BD080008B5080008AA
:10001000B9080008CD0600080D0A0008000000001D
:10002000000000000000000000000000C5080008FB
:10003000B108000800000000C1080008F508000829
:100040006B0200086B0200086B0200086B020008DC
:100050006B0200086B0200086B0200086B020008CC
:100060006B0200086B0200086B0200086B020008BC
:100070006B0200086B0200086B0200086B020008AC
:10008000D10600088D0800086B0200086B0200080A
:100090006B0200086B0200086B0200086B0200088C
:1000A0006B0200086B0200086B0200086B0200087C
:1000B0006B020008A50900086B0200086B0200082B
:1000C0006B0200086B0200086B0200086B0200085C
:1000D0006B0200086B0200086B0200086B0200084C
:1000E0006B0200086B0200086B0200086B0200083C
:1000F0006B0200086B0200086B0200086B0200082C
:100100006B0200086B0200086B0200086B0200081B
:100110006B0200086B0200086B0200086B0200080B
:100120006B0200086B0200086B0200086B020008FB
:100130000000000000000000000000006B0200084A
:100140006B0200086B0200086B0200080000000050
:10015000000000006B0200086B0200086B02000840
:100160006B0200086B0200080000000000000000A5
:100170006B0200086B020008000000000000000095
:1001800000000000000000006B0200086B02000885
:100190006B0200086B0200086B0200080000000000
:1001A00000F002F800F044F80AA090E8000C824445
:1001B0008344AAF10107DA4501D100F039F8AFF222
:1001C000090EBAE80F0013F0010F18BFFB1A43F035
:1001D00001031847241D0000441D0000103A24BFED
:1001E00078C878C1FAD8520724BF30C830C144BF9C
:1001F00004680C60704700000023002400250026DE
:10020000103A28BF78C1FBD8520728BF30C148BF79
:100210000B607047782900F09F80632900F00F82FF
:10022000002070471FB501F03CFE1FBD10B510BD8A
:1002300000F011FA1146FFF7F5FF00F0A9FD00F0FC
:100240002FFA03B4FFF7F2FF03BC00F037FA000007
:100250000948804709480047FEE7FEE7FEE7FEE75A
:10026000FEE7FEE7FEE7FEE7FEE7FEE70448054996
:10027000054A064B70470000FD080008A101000870
:10028000300100203009002030050020300500201A
:100290000FB41CB5074B06AA7B446946009005982D
:1002A00000F0ABF90020694600F0BAF91CBC5DF81B
:1002B00014FB00008503000070B5044685690068E2
:1002C000C10601D5302600E02026C00707D070BD4A
:1002D000D4E9012130469047206A401C20626D1EFF
:1002E000F6D570BD70B5044685690078C00707D1A2
:1002F00070BDD4E9012120209047206A401C206273
:100300006D1EF6D570BD70B50C460546012A05D0A8
:100310002878800600D5EA69002302E0012305E081
:100320005B1C934202D2E05C0028F9D1A869E61870
:10033000C01AA861286A184428622846FFF7BCFF43
:1003400004E0D5E9012114F8010B9047B442F8D339
:100350002846FFF7C7FF70BD70B504460D4621461D
:100360001068AFF300802188090502D50F4A7A444E
:1003700002E00E4A7A440E32002104F1240305E023
:1003800000F00F060009965D5E54491C0028F7D165
:1003900020780023000704D5702D02D009B1022374
:1003A00011322046BDE8704000F0C9B84A1B000079
:1003B0002DE9F05F894604464FF0000ADFF874B17A
:1003C000FB44C0F820A02046E1688847002874D08C
:1003D000252806D0D4E901219047206A401C2062DC
:1003E000F1E700265F462046E16888472028054659
:1003F00007DB312D05D2781910F8200C08B106431F
:10040000F1E7B00701D526F00406C4F81CA00027C8
:10041000C4F818A02A2D09D0284601F03BFD38B3B6
:1004200004EB8708303DC8F8185019E059F8041B50
:10043000204604EB87029161E1688847012F054659
:1004400018D1E069002820DA26F020061DE0D8F84F
:10045000180000EB800005EB40003038C8F81800A9
:100460002046E1688847054601F014FD0028EED1DA
:10047000012F0AD02E2D08D12046E16888477F1C25
:100480000546022F46F02006C4DBA069002803DAE7
:10049000404246F00106A061F00701D026F01006A8
:1004A0006C2D0BD0682D09D04C2D39D06A2D35D04C
:1004B000742D35D07A2D33D016E038E0E1682F4620
:1004C00020468847B842054609D16C2F26D04FF404
:1004D0008060E168064320468847054604E06C2FAB
:1004E0001AD04FF4807006430DB3A5F141001928CE
:1004F00002D8203546F400664A4629462046266042
:100500004E46FFF787FE80B101280BD0F61D26F07E
:10051000070000F1080956E74020E4E78020D8E70B
:100520000020D6E706F104094DE7284652E7206A85
:10053000BDE8F09F201B00007047704770472DE911
:10054000F0470D4699469246044600F1240801689A
:10055000880604D5E06921F01001216000E0012047
:10056000A84201DD471B00E00027A1697A1902EBD0
:100570000900081AA0612078C00602D42046FFF7BF
:100580009BFE002608E0D4E901211AF806009047F6
:10059000206A401C761C20624E45F4DB2078C006A1
:1005A0000AD52046FFF788FE06E0D4E90121302075
:1005B0009047206A401C2062381EA7F10107F4DC36
:1005C00007E0D4E9012118F805009047206A401C93
:1005D0002062281EA5F10105F3DC2046FFF782FE0C
:1005E0002078000602D50220BDE8F0870120FBE755
:1005F00001694A1C02610878704700B58FB0CDE9E7
:1006000001310021059105497944CDE903101146D6
:100610006846FFF7CDFE0FB000BD0000E5FFFFFF0D
:100620000A6802F8010B0A60704710B5436913B1FC
:10063000AFF3008001E0FFF766FE012010BD1278E5
:1006400000F124010A7000224A700122EDE71168CE
:100650004FF0FF32E9E7754600F02CF8AE46050092
:100660006946534620F00700854618B020B5FFF7CD
:10067000FDFDBDE820404FF000064FF000074FF0B1
:1006800000084FF0000BAC46ACE8C009ACE8C0096C
:10069000ACE8C009ACE8C00921F007018D467047FD
:1006A00010B50446AFF300802046BDE81040FFF7C8
:1006B000C8BD0000004870471800002001491820FC
:1006C000ABBEFEE72600020070470000FEE7000018
:1006D00010B50024C4F2020420460521022200F0D5
:1006E0007FFA002848D02046052100F0B9F92046BD
:1006F0000521012200F008FA40F21400C2F20000C5
:1007000002882046052100F0CDFA2046052100F0A0
:10071000B9F920460521012200F052FA00F0DEFC72
:1007200040F2C300C2F200000078022818D001286D
:1007300023D008BB40F27C00C2F2000000780628FB
:100740001AD8DFE800F004636D77818C970040F2DF
:10075000BC00C2F20000007870B100F06FFD10BD67
:10076000012080211222002300F05CFEA4F57840D5
:100770004FF4807100F0A6FA10BD40F27D00C2F285
:10078000000000780528F7D8DFE800F0030D1721F6
:100790002B3640F2C400C2F2000000780028EBD0F3
:1007A00000F04CFD10BD40F2C400C2F200004078E1
:1007B0000028E1D000F042FD10BD40F2C400C2F2BA
:1007C000000080780028D7D000F038FD10BD40F23E
:1007D000C400C2F20000C0780028CDD000F02EFD89
:1007E00010BD40F2C400C2F200004079002808BFEA
:1007F00010BD00F023FD10BD40F2C400C2F20000A5
:1008000000790028B8D000F019FD10BD40F2BC00FE
:10081000C2F2000040780028AED000F0C3FC10BD4A
:1008200040F2BC00C2F2000080780028A4D000F0A2
:100830009BFD10BD40F2BC00C2F20000C078002851
:100840009AD000F05FFD10BD40F2BC00C2F2000083
:10085000007900283FF490AF00F072FC10BD40F228
:10086000BC00C2F20000407900283FF485AF00F0E0
:1008700017FD10BD40F2BC00C2F2000080790028D4
:100880003FF47AAF00F09EFD10BD000010B50024CB
:10089000C4F2020420460621022200F0A1F9002839
:1008A00008BF10BD20460621012200F089F910BDC5
:1008B00070470000FEE70000FEE700007047000000
:1008C0007047000070470000B0B501380024B4EB59
:1008D000106F1CBF0120B0BD4EF21005CEF2000516
:1008E00068600F2000F0A8F80720AC602860204660
:1008F000B0BD000080B500F0A7F880BD80B582B023
:100900004EF68851CEF20001086840F4700241F2C0
:100910000000C4F202000A60016841F001010160B8
:1009200001688907FCD5416841F0800141600021E0
:100930000191019AFF2A06D8019A01320192019A87
:10094000B2F5807FF8D3426842F090024260019194
:100950000199FF2907D800BF01990131019101993F
:10096000B1F5807FF8D341684FF6FF7221F00301A3
:1009700041600168CFF6F662114001604FF41F013B
:10098000816000214160C162016821F48021016021
:1009900000F0EEFE4FF00060002100F0D1FA02B04E
:1009A00080BD0000B0B540F60004C4F20104A4F517
:1009B00082352846012101F013F8012825D1284667
:1009C000012101F009F840F2C300C2F200000178F1
:1009D000032908D0022918BFB0BD20464FF480710A
:1009E00000F072F9B0BD0221017020464FF4807111
:1009F00000F06AF9012080211222002300F012FD8C
:100A000020464FF4807100F05DF9B0BDFEE70000B4
:100A1000002848BF704700F01F01012202FA01F1CF
:100A20004EF280124009CEF2000242F82010BFF3CD
:100A30004F8FBFF36F8F70474EF623510001CEF2F8
:100A4000000108707047000040F27800C2F2000018
:100A50000168002908BF70470168013901607047CB
:100A6000B0B50D46044600F00FF948B105EB85001E
:100A700004EB8000816821F001018160B0BD00BFFE
:100A8000FEE70000B0B50D46044600F0FDF848B1A1
:100A900005EB850004EB8000816841F00101816075
:100AA000B0BD00BFFEE70000B0B50D46044600F043
:100AB000EBF848B105EB850004EB8000816821F07C
:100AC00020018160B0BD00BFFEE70000B0B50D465B
:100AD000044600F0D9F8A8B105EB850004EB8000CE
:100AE000816821F00101816000218160C1600161A4
:100AF0004161A8000F21626801FA00F010436060B4
:100B0000B0BD00BFFEE7000070B514460E460546B6
:100B100000F0BAF830B1B000696804FA00F0084398
:100B2000686070BDFEE7000070B59AB314460D46CC
:100B3000064600F0A9F878B305EB8500216806EBBE
:100B400080000161A1684161218AC1608168626899
:100B500021F47C51E3686669114319433143816094
:100B6000217E8268012922F0400208BF4032826063
:100B7000617E8268012922F0800208BF8032826093
:100B8000A17E8268002922F0100218BF1032826014
:100B900070BD00BFFEE700BFFEE7000070B5144661
:100BA0000E46054600F070F840B106EB860005EBF6
:100BB000800081682143816070BD00BFFEE70000B6
:100BC00070B514460E46054600F05EF830B1B00030
:100BD000696804FA00F00843686070BDFEE7000031
:100BE00070B514460D46064600F04EF8D0B1082CFC
:100BF0001AD80120A04010F48A7F15D005EB85019A
:100C0000306806EB8101AA0004FA02F289681040FC
:100C100001EA040118BF0120002918BF0121084082
:100C200070BD00BFFEE700BFFEE7000070B51446D0
:100C30000E46054600F028F830B106EB860005EBBD
:100C40008000446170BD00BFFEE70000B0B50D46F6
:100C5000044600F019F848B105EB850004EB80006C
:100C6000816821F480418160B0BD00BFFEE70000D3
:100C700080B511200021002200F006F9102001218A
:100C8000002200F001F980BD40F20042C4F20202ED
:100C9000801A18BF01200022052938BF0122104305
:100CA0007047000070B514460E460546FFF7ECFF8E
:100CB00030B106EB8600A1B205EB8000C16070BDCB
:100CC000FEE7000041617047016170472DE9F04780
:100CD000CF0601F00F0C09D5042A05D1C26B4CF0E8
:100CE000030C1A43C26301E04CEA020C00F1100E3F
:100CF00000F1140A00244FF001094FF00F080027FB
:100D00000EE000BF166008FA04F225EA02020CFAAF
:100D100004F52A4302600137082F04F104040CD0C3
:100D200009FA07F212EA0306F5D0056828295246A7
:100D3000E8D04829E7D17246E4E7082400254FF0BF
:100D400001094FF00F080FE0176008FA05F226EAD4
:100D500002020CFA05F6324342600134102C05F110
:100D6000040508BFBDE8F08709FA04F212EA030798
:100D7000F3D0466828295246E6D04829E5D1724684
:100D8000E2E700008068084018BF012070470000BB
:100D900040F60004C4F2010400F0EEFC40F20260F0
:100DA00000F06CF940F2046000F068F92046102170
:100DB000032240F28173FFF789FF204640F28171E0
:100DC000FFF780FF04F50065284610210322032366
:100DD000FFF77CFF28460321FFF776FF4FF46140C1
:100DE00000F08EF900F02AFA20460121FFF7CAFF31
:100DF00080B120468021FFF767FF00BF2046012118
:100E0000FFF7C0FF0028F9D120468021FFF75AFFE5
:100E100000F0C8F928460121FFF7B4FF98B9204631
:100E20004FF48061FFF750FF00F08AF92846012156
:100E3000FFF7A8FF0028F9D000F0C4FA20464FF4CD
:100E40008061FFF73FFF28460221FFF79BFF002844
:100E5000CAD120464FF40071FFF736FF00F070F959
:100E600028460221FFF78EFF0028F9D000F0AAFAE9
:100E700020464FF40071FFF725FFB5E780B540B27B
:100E8000FFF7C6FD80BD000070B515464EF60C524A
:100E9000CEF2000213680E4603F4E061B1F5E06F94
:100EA000044601D1042024E0106800F4E060B0F5AD
:100EB000C06F01D103201CE0106800F4E060B0F5C1
:100EC000A06F01D1022014E0106800F4E060B0F5DA
:100ED000806F01D101200CE0106800F4E060B0F5F3
:100EE000407F01D1002004E04FF4A06000F01EF824
:100EF000022006FA00F1C0F104000F2222FA00F0ED
:100F0000284008434EF20011CEF20001000144EAED
:100F100001021C2382F8000304F01F00012203EAEF
:100F2000D40302FA00F0585070BD000040F0806019
:100F30004EF60C5140F0FD70CEF200010860704793
:100F40004FF68072C1F6FF72114008434EF6085109
:100F5000CEF200010860BFF34F8F704770B541F2C9
:100F6000040CC4F2020CDCF80020014641F200201F
:100F700002F00C02C0F27A00082A03462CD1DCF8F9
:100F8000002040F6001ED203C0F23D0E0DD5DCF865
:100F90002830DCF800505B0046F60043C0F2DC234A
:100FA00058BF0346AD0358BF9E46DCF80030DCF85E
:100FB0000050102404EAD555DCF80040C3F3834305
:100FC000202202EA54622B441A4401230F2A38BF1C
:100FD00002231A4402FB0EF3DCF80040DCF800E0C8
:100FE000DCF80020042912D8C4F303141DA5C2F3B1
:100FF000C2222D5D1FA4A25C23FA05F525FA02F298
:10100000DFE801F003080A1C11001A4616E000226E
:10101000104670BD284670BDCEF30220205C25FA34
:1010200000F2104670BDDCF8D010890706D0DCF85D
:10103000D0101A4601F00301012901D1104670BDFC
:10104000DCF8D01001F00301022902BF4FF4004286
:10105000104670BDDCF8D01001F00301032918BF61
:10106000002070BD00000000000000000102030429
:1010700006070809000000000102030441F2000312
:1010800000F01F018009C4F202034FF0010CC258A6
:101090000CFA01F11143C1507047000041F2000306
:1010A00000F01F018009C4F202034FF0010CC25886
:1010B0000CFA01F122EA0101C150704741F200032C
:1010C00000F01F018009C4F202034FF0010CC25866
:1010D0000CFA01F11143C1507047000080B540F295
:1010E0007E00C2F200008078412808BF80BD40F633
:1010F0000000C4F201008021FFF7E6FD80BD000082
:1011000010B50446FFF7B4FD204600F029FD40F27B
:101110001600C2F20000018840F2CA00C2F20000CC
:1011200000F0E6FC40F21400C2F20000018840F238
:101130007E00C2F2000000F081FC00F063FA10BDF6
:1011400080B582B040F2BC00C2F2000001790129F2
:101150001DD021BB40F2C301C2F200014FF0000CD0
:1011600081F800C040F27C01C2F2000104220A7042
:10117000012140F6070201719220C3F20002002112
:101180000023CDF800C000F0E5F902B080BD0021D9
:10119000017140F2C300C2F200000321017002B0ED
:1011A00080BD000010B582B040F2BC04C2F2000461
:1011B0006078032840D8DFE800F0021F263000F0F6
:1011C00043FA40F2C300C2F200004FF0000C80F876
:1011D00000C040F27C00C2F2000001210722017031
:1011E00061709220C3F2000200210023CDF800C0FC
:1011F00000F0B0F902B010BD02206070A0201221F2
:1012000041F6A56204E0032060708B2000210022DB
:10121000002300F04BF902B010BD00206070902058
:10122000102141F6A562002300F040F940F2C3000E
:10123000C2F200000321017002B010BD80B540F27F
:10124000BC00C2F200000178012917D0002918BFA4
:1012500080BD40F2C301C2F2000100220A7040F2D8
:101260007C01C2F200010A7001210170902000216E
:1012700041F6A562002300F019F980BD002101703C
:101280008B2000210122002300F010F940F2C3005E
:10129000C2F200000321017000F0E6F980BD0000F9
:1012A00080B582B040F2BC00C2F200004179012951
:1012B0001DD021BB40F2C301C2F200014FF0000C6F
:1012C00081F800C040F27C01C2F2000105220A70E0
:1012D000012141F2070241719220C3F20002002174
:1012E0000023CDF800C000F035F902B080BD002128
:1012F000417140F2C300C2F200000321017002B04C
:1013000080BD000080B582B040F2BC00C2F2000097
:10131000C17801291ED029BB40F27C01C2F2000134
:1013200003220A700121C17040F2B000C2F2000035
:10133000D0E9002340F2C3014FF0000CC2F20001DB
:1013400081F800C0A0201021CDF800C000F002F903
:1013500002B080BD0021C17040F2C300C2F20000A3
:101360000321017002B080BD80B540F2BC00C2F222
:101370000000817801291BD0002918BF80BD40F2F0
:10138000C301C2F2000100220A7040F27C01C2F2E5
:10139000000102220A7040F2B802C2F200020121EA
:1013A00012688170A0201021002300F07FF880BD1A
:1013B0000021817040F2C300C2F2000003210170DD
:1013C00080BD000080B582B040F2BC00C2F20000D7
:1013D000817901291CD019BB40F2C301C2F200017E
:1013E0004FF0000C81F800C040F27C01C2F2000115
:1013F00006220A700121072281719220C3F20002A5
:1014000000210023CDF800C000F0A4F802B080BD98
:101410000021817140F2C300C2F20000032101707B
:1014200002B080BD2DE9F04186B0064610469846D0
:101430000D4600F0EBFA40F20400C2F2000032095F
:1014400010F80810825C06F00F03C35C2C09045DE1
:1014500005F00F071144C05D1944214408440530CC
:10146000C7B20320CDE9025040F2CA050221C2F200
:101470000005CDE9006107A12846012243460497F3
:10148000FEF706FF28460A2100F014FB06B0BDE86F
:10149000F08100BF2563255825303258256325305B
:1014A0003258256325303258000000002DE9F047FE
:1014B00086B007460620984691468A4600F0A6FA6E
:1014C0005FFA89F10022002021FA02F3184480B269
:1014D0000832202AF8D140F20401C2F2000111F8CA
:1014E00008203B09CB5C07F00F040C5D4FEA1A158E
:1014F00010444D5D0AF00F061844895D20442844CD
:101500000844053040F2FC05C6B203200221C2F2B5
:101510000005CDE90071049007A128460122434649
:10152000CDE902A90596FEF7B3FE28460E2100F08C
:10153000C1FA06B0BDE8F08725632558253032583A
:1015400025632530325825303458256325303258EC
:10155000000000002DE9F04F89B0DDF84880044616
:101560000620994692468B4600F050FA5FFA8AF1BF
:101570000022002021FA02F3184480B20832402AE7
:10158000F8D140F20401C2F2000111F80820230949
:10159000CB5C04F00F054D5D4FEA1B1610448E5DC9
:1015A0000BF00F071844C95D284430440844022159
:1015B0000530CDE9004140F2FC04C7B20320C2F27D
:1015C0000004069008A1204601224346CDF808B049
:1015D000CDE904A90797FEF75BFE2046122100F033
:1015E00069FA09B0BDE8F08F2563255825303258D7
:1015F0002563253032582530384C58256325303244
:1016000058000000B0B584B040F20170FFF736FD1D
:1016100040F20044C4F20004204600F0C3F86D46D6
:10162000284600F0E9F944F24F600090002040F2B3
:10163000CF71ADF804000291ADF80C0020462946A8
:1016400000F05EF904B0B0BD10B540F20044C4F241
:101650000004204600F048F92046012100F0B2F9CC
:101660001D20FFF70BFC10BD10B51D20022100222C
:10167000FFF70AFC40F20044C4F2000420460121B6
:1016800000F0A6F9204600F035F910BD41F2040043
:10169000C4F2020050F8041C41F4803140F8041CEC
:1016A0004FF6FE7150F8043C4A1E8A4203D213F4EE
:1016B00000311146F6D050F8041C890301D400BF54
:1016C000FEE742F20001C4F202010A68042363F358
:1016D00002020A6081694FF6FF7241F08051816118
:1016E0000168CBF2C372016001680160016841F4D6
:1016F00080610160016821F440310160016841F4BA
:1017000040310160016811400160016841F0804191
:1017100041F44011016050F8041C41F0807140F820
:10172000041C00BF50F8041C8901FBD547F20001DE
:10173000C4F200010A6842F480320A604A68D203A7
:10174000FCD50A6842F400320A6000BF4A6892037E
:10175000FCD5016821F003010160016841F002013C
:10176000016000BF016801F00C010829FAD170473F
:1017700080B5FFF78BFF80BD80B540F20000C2F25C
:101780000000006844F6D351C1F26201A0FB0101E0
:101790008809FFF799F800B1FEE70020FFF74CF940
:1017A00080BD000010B541F6FF31C4F2000188424F
:1017B0001BDC40F6FF31C4F20001884230DD41F20B
:1017C000FF31C4F20001884251DC40F60041C4F20E
:1017D000000188426AD041F20001C4F2000188424F
:1017E00040F0818040F2044477E043F2FF31C4F2DC
:1017F0000101884226DD44F6FF71C4F201018842EE
:1018000044DC43F20041C4F20101884251D044F665
:101810000041C4F20101884265D140F213345CE01A
:10182000B0F1804F48D040F20041C4F2000188423C
:1018300045D040F60001C4F20001884253D140F285
:1018400002444AE041F60041C4F20001884239D026
:1018500042F20001C4F20001884236D042F6004153
:10186000C4F2010188423ED140F20B3435E041F22E
:101870000041C4F2000188422AD041F60001C4F2BE
:10188000000188422FD140F2064426E045F20001D3
:10189000C4F2010188421ED045F20041C4F20101A8
:1018A000884218BF10BD40F2153416E040F20344E0
:1018B00013E040F20D3410E04FF480640DE040F28C
:1018C00001440AE040F2074407E04FF4816404E079
:1018D00040F2054401E04FF445742046FFF7EEFB6B
:1018E0002046FFF7DBFB10BD016821F0010101601C
:1018F00070470000016841F001010160704700007D
:1019000080B540F6FF330A88C4F2000343F2004C6E
:101910009842C4F2010C82620FDCB0F1804F14D007
:1019200040F20043C4F2000398420ED040F6000398
:10193000C4F20003984208D017E040F60043C4F216
:101940000003984218BF604534D1036823F0700348
:1019500003604B88026803F060031A4302608A88C0
:10196000036802F010021A43026041F20002D1F84B
:1019700008E020F48063C4F200029342C0F82CE037
:1019800009D0026822F4407202608A89036802F476
:1019900040721A430260604505D042F60042C4F22C
:1019A0000102904201D1897B0163416941F001014B
:1019B000416180BD42F60043C4F201039842C4D0A5
:1019C000D3E70000C26822EA0101C160704700004D
:1019D000C2681143C1607047C9430161704700008C
:1019E000C26800690A40084018BF0120002A18BFD9
:1019F000012210407047000000214FF6FF72016085
:101A0000818082608181817370470000B0B50025BC
:101A1000C4F20205044628460521FFF721F82846AE
:101A200005210122FFF770F8284605212246FFF71D
:101A300039F928460521FFF725F8B0BD70B588B003
:101A40000024C4F202040D46064620460521FFF795
:101A50003DF8A4F5DC310020A1F57F718DF81E0062
:101A6000CDE9036001914FF4807102904FF4405032
:101A7000ADF81C10069001AA204605210595FFF738
:101A800053F820460521FFF70FF820460521FFF700
:101A9000DDF8204605210222FFF780F8A4F5DE30AC
:101AA000402100F047F920460521FEF7EBFF08B082
:101AB00070BD000070B50026C4F202060C46054653
:101AC00030460621FEF7CCFF304606212A46FFF7B6
:101AD000ADF8304606212246FFF7E4F830460621ED
:101AE000FEF7D0FFA6F5DE30802100F037F970BD9B
:101AF00070B588B006464FF4A0600D46FFF7BEFAF9
:101B00000024C4F2020420460621FEF7DFFF012074
:101B100044F204418DF81E000020C4F20001CDE91A
:101B2000040501914FF4807102904FF44050ADF8DC
:101B30001C10069001AA204606210396FEF7F4FF2A
:101B4000204606210222FFF729F820460621FEF74B
:101B5000ABFF20460621FFF779F808B070BD000002
:101B600070B5054640F20260FFF788FA40F2117046
:101B7000FFF784FA44F20044C4F2000404F544463A
:101B80003046182103220423FFF7A0F83046042131
:101B900003220823FFF79AF8204600F087F8204632
:101BA000294600F01BF82046042100F019F92046D0
:101BB000082100F03FF920464FF4806100F0F2F870
:101BC0002046002100F01EF920464FF4805100F01D
:101BD00043F9204600F0D6F870BD000070B5044609
:101BE00044F6FF70C4F2000047F200060D4684423E
:101BF0004FF00000C4F2010612DC44F20041C4F2CE
:101C000000018C421CD044F60001C4F200018C4259
:101C100016D044F60041C4F200018C4210D014E00A
:101C200045F20001C4F200018C4209D043F60001E4
:101C3000C4F201018C4205D0B44206D1042002E076
:101C4000022000E00320FFF789F9B44209D131688E
:101C5000090410D400EB5500B0FBF5F000F00F01C3
:101C600010E0E168090413D400EB5500B0FBF5F077
:101C700000F00F0113E0400000EB5500B0FBF5F061
:101C8000C0F342014FF6F07210400844F06070BD9E
:101C9000400000EB5500B0FBF5F0C0F342014FF6F9
:101CA000F07210400844A06070BD000010B544F60A
:101CB000FF71C4F20001884214DC44F20041C4F216
:101CC0000001884224D044F60001C4F20001884299
:101CD00021D044F60041C4F20001884229D140F2EB
:101CE000134420E045F20001C4F20001884215D0FF
:101CF00043F60001C4F20101884212D047F200010C
:101D0000C4F20101884218BF10BD4FF447740AE0C5
:101D100040F2114407E040F2124404E040F214445F
:101D200001E040F20E342046FFF7C8F92046FFF7E5
:101D3000B5F910BD47F20802C4F20102A2F108038E
:101D4000984205D1106820F04000084310607047A9
:101D5000426922F0400211434161704747F2080294
:101D6000C4F20102A2F10803984205D1106820F0E4
:101D70008000084310607047426922F080021143DE
:101D80004161704747F20001C4F20101884204D169
:101D9000086840F0010008607047C16841F40051D4
:101DA000C160704747F20002C4F2010290420DD1B7
:101DB000106801F4C06120F001001060106820F488
:101DC000C06010601068084310607047C26801F47A
:101DD000C06122F4C062C260C2681143C160704732
:101DE00047F20002C4F20102904205D1106889084E
:101DF00061F3820010607047C268890861F3820253
:101E0000C260704747F20002C4F20102904205D15D
:101E1000106820F0010042F8040B01E000F110020C
:101E2000106801F4405120F44050106010680843DD
:101E30001060704747F20002C4F20102904205D1DF
:101E40001068C90861F3C30010607047C268C90810
:101E500061F3C302C260704747F20002C4F201029C
:101E600090420DD1106801F4805120F00100106003
:101E7000106820F4805010601068084310607047AC
:101E8000C26801F4805122F48052C260C2681143DA
:101E9000C160704730380A2801D201207047002005
:101EA0007047F1EE100A4FF6FF71C0F2C03120EA20
:101EB000010040F04070E1EE100A704730313233DB
:101EC000343536373839414243444546403058006E
:101ED00030313233343536373839616263646566A0
:101EE00040307800040000080000000000000002FC
:101EF0000001000010000000181F00080000002072
:101F000018000000DC010008301F00081800002045
:101F100018090000F80100080095BA0A3031323380
:101F20003435363738394142434445463200320071
:04000005080001A14D
:00000001FF
