:020000040800F2
:10000000D8080020550200082D0700082507000821
:1000100029070008810600081108000800000000F8
:10002000000000000000000000000000350700088C
:1000300021070008000000003107000865070008DC
:100040006F0200086F0200086F0200086F020008CC
:100050006F0200086F0200086F0200086F020008BC
:100060006F0200086F0200086F0200086F020008AC
:100070006F0200086F0200086F0200086F0200089C
:1000800085060008F10600086F0200086F020008EC
:100090006F0200086F0200086F0200086F0200087C
:1000A0006F0200086F0200086F0200086F0200086C
:1000B0006F0200086F0200086F0200086F0200085C
:1000C0006F0200086F0200086F0200086F0200084C
:1000D0006F0200086F0200086F0200086F0200083C
:1000E0006F0200086F0200086F0200086F0200082C
:1000F0006F0200086F0200086F0200086F0200081C
:100100006F0200086F0200086F0200086F0200080B
:100110006F0200086F0200086F0200086F020008FB
:100120006F0200086F0200086F0200086F020008EB
:100130000000000000000000000000006F02000846
:100140006F0200086F0200086F0200080000000044
:10015000000000006F0200086F0200086F02000834
:100160006F0200086F02000800000000000000009D
:100170006F0200086F02000800000000000000008D
:1001800000000000000000006F0200086F0200087D
:100190006F0200086F0200086F02000800000000F4
:1001A00000F002F800F047F80AA090E8000C824442
:1001B0008344AAF10107DA4501D100F03CF8AFF21F
:1001C000090EBAE80F0013F0010F18BFFB1A43F035
:1001D00001031847AC130000CC130000103A24BFF1
:1001E00078C878C1FAD8520724BF30C830C144BF9C
:1001F00004680C60704700000023002400250026DE
:10020000103A28BF78C1FBD8520728BF30C148BF79
:100210000B607047782900F0A180632900F0E98124
:10022000732900F0EE81002070471FB501F07DF9C1
:100230001FBD10B510BD00F0E8F91146FFF7F5FF3E
:1002400000F092FC00F006FA03B4FFF7F2FF03BCE3
:1002500000F00EFA0948804709480047FEE7FEE72C
:10026000FEE7FEE7FEE7FEE7FEE7FEE7FEE7FEE766
:1002700004480549054A064B704700006907000815
:10028000A1010008D8000020D8080020D8040020D0
:10029000D80400200FB41CB5074B06AA7B4469465E
:1002A0000090059800F083F90020694600F092F96B
:1002B0001CBC5DF814FB00003503000070B504465B
:1002C00085690068C10601D5302600E02026C007F8
:1002D00007D070BDD4E9012130469047206A401C08
:1002E00020626D1EF6D570BD70B504468569007834
:1002F000C00707D170BDD4E9012120209047206AB2
:10030000401C20626D1EF6D570BD70B50C460546CA
:10031000012A05D02878800600D5EA69002302E08A
:10032000012305E05B1C934202D2E05C0028F9D176
:10033000A869E618C01AA861286A184428622846E5
:10034000FFF7BCFF04E0D5E9012114F8010B904749
:10035000B442F8D32846FFF7C7FF70BD70B5044616
:100360000D4621461068AFF300802188090502D5AB
:100370000F4A7A4402E00E4A7A440E32002104F118
:10038000240305E000F00F060009965D5E54491C49
:100390000028F7D120780023000704D5702D02D063
:1003A00009B1022311322046BDE8704000F0A1B827
:1003B000CE1100002DE9F05F894604464FF0000A97
:1003C000DFF824B1FB44C0F820A02046E16888474C
:1003D00000287DD0252806D0D4E901219047206A45
:1003E000401C2062F1E700255F462046E16888470F
:1003F0002028064607DB312E05D2B81910F8200C4C
:1004000008B10543F1E7A80701D525F00405C4F8B4
:100410001CA00027C4F818A02A2E09D0304601F0ED
:100420007DF838B304EB8708303EC8F8186019E04F
:1004300059F8041B204604EB87029161E168884764
:10044000012F064618D1E069002820DA25F02005A2
:100450001DE0D8F8180000EB800006EB40003038B3
:10046000C8F818002046E1688847064601F056F8AB
:100470000028EED1012F0AD02E2E08D12046E168A7
:1004800088477F1C0646022F45F02005C4DBA06983
:10049000002803DA404245F00105A061E80701D0D9
:1004A00025F01005A6B1A6F14100192802D8203682
:1004B00045F400654A463146204625604D46FFF723
:1004C000A9FE60B1012807D0ED1D25F0070000E06E
:1004D00007E000F1080978E705F1040975E73046FF
:1004E0007AE7206ABDE8F09FA411000070477047CA
:1004F00070472DE9F0470D4699469246044600F1B3
:1005000024080168880604D5E06921F01001216003
:1005100000E00120A84201DD471B00E00027A1699F
:100520007A1902EB0900081AA0612078C00602D4EB
:100530002046FFF7C3FE002608E0D4E901211AF89F
:1005400006009047206A401C761C20624E45F4DB72
:100550002078C0060AD52046FFF7B0FE06E0D4E9B1
:10056000012130209047206A401C2062381EA7F1EC
:100570000107F4DC07E0D4E9012118F805009047F1
:10058000206A401C2062281EA5F10105F3DC2046EC
:10059000FFF7AAFE2078000602D50220BDE8F0870A
:1005A0000120FBE701694A1C02610878704700B529
:1005B0008FB0CDE901310021059105497944CDE99C
:1005C000031011466846FFF7F5FE0FB000BD0000AE
:1005D000E5FFFFFF0A6802F8010B0A60704710B5DB
:1005E000436913B1AFF3008001E0FFF78EFE0120F5
:1005F00010BD127800F124010A7000224A70012215
:10060000EDE711684FF0FF32E9E7754600F02CF88E
:10061000AE4605006946534620F00700854618B0EF
:1006200020B5FFF725FEBDE820404FF000064FF053
:1006300000074FF000084FF0000BAC46ACE8C009D3
:10064000ACE8C009ACE8C009ACE8C00921F007017A
:100650008D46704710B50446AFF300802046BDE8D4
:100660001040FFF7F1BD0000004870472000002057
:1006700001491820ABBEFEE72600020070470000CB
:10068000FEE70000B0B50024C4F2020420460521B4
:10069000022200F087F9002808BFB0BDA4F5784019
:1006A0004FF4007100F0FAF92046052100F0BAF885
:1006B000204605210122012500F008F940F214002E
:1006C000C2F2000002882046052100F0CDF9204644
:1006D000052100F0B9F820460521012200F052F969
:1006E00000F0BEFB40F21600C2F200000570B0BD83
:1006F00010B50024C4F2020420460621022200F0B4
:1007000051F9002808BF10BDA4F578404FF40071DE
:1007100000F0C6F920460621012200F033F910BD91
:1007200070470000FEE70000FEE700007047000091
:100730007047000070470000B0B501380024B4EBEA
:10074000106F1CBF0120B0BD4EF21005CEF20005A7
:1007500068600F2000F05EF80720AC60286020463B
:10076000B0BD00007047000080B582B04EF68851E1
:10077000CEF20001086840F4700241F20000C4F2B9
:1007800002000A60016841F0010101600168890707
:10079000FCD5416841F08001416000210191019A3E
:1007A000FF2A06D8019A01320192019AB2F5807FA0
:1007B000F8D3426842F09002426001910199FF290A
:1007C00007D800BF0199013101910199B1F5807FEE
:1007D000F8D341684FF6FF7221F0030141600168D0
:1007E000CFF6F662114001604FF41F0181600021D5
:1007F0004160C162016821F48021016000F092FC37
:100800004FF00060002100F05DFA02B080BD0000F2
:10081000FEE700004EF623510001CEF20001087001
:1008200070470000B0B50D46044600F00FF948B11E
:1008300005EB850004EB8000816821F001018160F7
:10084000B0BD00BFFEE70000B0B50D46044600F0A5
:10085000FDF848B105EB850004EB8000816841F0AC
:1008600001018160B0BD00BFFEE70000B0B50D46DC
:10087000044600F0EBF848B105EB850004EB80007E
:10088000816821F020018160B0BD00BFFEE700005B
:10089000B0B50D46044600F0D9F8A8B105EB8500C7
:1008A00004EB8000816821F00101816000218160FA
:1008B000C16001614161A8000F21626801FA00F086
:1008C00010436060B0BD00BFFEE7000070B5144685
:1008D0000E46054600F0BAF830B1B000696804FA77
:1008E00000F00843686070BDFEE7000070B59AB381
:1008F00014460D46064600F0A9F878B305EB8500CE
:10090000216806EB80000161A1684161218AC16014
:100910008168626821F47C51E36866691143194378
:1009200031438160217E8268012922F0400208BFA4
:1009300040328260617E8268012922F0800208BF15
:1009400080328260A17E8268002922F0100218BFE6
:100950001032826070BD00BFFEE700BFFEE70000FE
:1009600070B514460E46054600F070F840B106EB2F
:10097000860005EB800081682143816070BD00BF67
:10098000FEE7000070B514460E46054600F05EF81E
:1009900030B1B000696804FA00F00843686070BDC7
:1009A000FEE7000070B514460D46064600F04EF80E
:1009B000D0B1082C1AD80120A04010F48A7F15D09D
:1009C00005EB8501306806EB8101AA0004FA02F20A
:1009D0008968104001EA040118BF0120002918BFEE
:1009E0000121084070BD00BFFEE700BFFEE7000028
:1009F00070B514460E46054600F028F830B106EBF7
:100A0000860005EB8000446170BD00BFFEE700007A
:100A1000B0B50D46044600F019F848B105EB850065
:100A200004EB8000816821F480418160B0BD00BF8B
:100A3000FEE7000080B511200021002200F0E6F85A
:100A400010200221002200F0E1F880BD40F20042B7
:100A5000C4F20202801A18BF01200022052938BF03
:100A6000012210437047000070B514460E4605463B
:100A7000FFF7ECFF30B106EB8600A1B205EB80007A
:100A8000C16070BDFEE70000002200BF91B20132DC
:100A9000435C002BFAD10846704700004161704763
:100AA000016170472DE9F047CF0601F00F0C09D521
:100AB000042A05D1C26B4CF0030C1A43C26301E057
:100AC0004CEA020C00F1100E00F1140A00244FF061
:100AD00001094FF00F0800270EE000BF166008FA6A
:100AE00004F225EA02020CFA04F52A4302600137F7
:100AF000082F04F104040CD009FA07F212EA0306E5
:100B0000F5D0056828295246E8D04829E7D1724631
:100B1000E4E7082400254FF001094FF00F080FE02B
:100B2000176008FA05F226EA02020CFA05F63243CB
:100B300042600134102C05F1040508BFBDE8F087C0
:100B400009FA04F212EA0307F3D04668282952464C
:100B5000E6D04829E5D17246E2E700008068084007
:100B600018BF01207047000040F60004C4F20104E1
:100B700000F0DCFA40F2026000F042F92046102159
:100B8000032240F28173FFF78DFF204640F281710E
:100B9000FFF784FF4FF4165000F074F915A518A65E
:100BA00020460121FFF7DAFF0028F9D020464FF454
:100BB0008061FFF775FF00BF20460121FFF7CEFFE0
:100BC0000028F9D120464FF48061FFF767FF01202C
:100BD00080211222002300F073F9842000212A468C
:100BE000002300F0BFF9842000213246002300F0EA
:100BF000B9F9D5E730303030303030320000000005
:100C000030303030303030330000000070B51546E1
:100C10004EF60C52CEF2000213680E4603F4E06169
:100C2000B1F5E06F044601D1042024E0106800F41F
:100C3000E060B0F5C06F01D103201CE0106800F443
:100C4000E060B0F5A06F01D1022014E0106800F45C
:100C5000E060B0F5806F01D101200CE0106800F475
:100C6000E060B0F5407F01D1002004E04FF4A060C7
:100C700000F01EF8022006FA00F1C0F104000F2275
:100C800022FA00F0284008434EF20011CEF2000193
:100C9000000144EA01021C2382F8000304F01F0053
:100CA000012203EAD40302FA00F0585070BD00009C
:100CB00040F080604EF60C5140F0FD70CEF2000125
:100CC000086070474FF68072C1F6FF72114008430A
:100CD0004EF60851CEF200010860BFF34F8F704707
:100CE00070B541F2040CC4F2020CDCF8002001469D
:100CF00041F2002002F00C02C0F27A00082A0346FA
:100D00002CD1DCF8002040F6001ED203C0F23D0ECC
:100D10000DD5DCF82830DCF800505B0046F60043C7
:100D2000C0F2DC2358BF0346AD0358BF9E46DCF833
:100D30000030DCF80050102404EAD555DCF80040FF
:100D4000C3F38343202202EA54622B441A44012352
:100D50000F2A38BF02231A4402FB0EF3DCF80040CE
:100D6000DCF800E0DCF80020042912D8C4F30314F6
:100D70001DA5C2F3C2222D5D1FA4A25C23FA05F5B6
:100D800025FA02F2DFE801F003080A1C11001A46F6
:100D900016E00022104670BD284670BDCEF302203A
:100DA000205C25FA00F2104670BDDCF8D0108907EF
:100DB00006D0DCF8D0101A4601F00301012901D158
:100DC000104670BDDCF8D01001F00301022902BF0B
:100DD0004FF40042104670BDDCF8D01001F0030162
:100DE000032918BF002070BD0000000000000000B3
:100DF00001020304060708090000000001020304C1
:100E000041F2000300F01F018009C4F202034FF019
:100E1000010CC2580CFA01F11143C1507047000097
:100E200041F2000300F01F018009C4F202034FF0F9
:100E3000010CC2580CFA01F122EA0101C1507047BD
:100E400041F2000300F01F018009C4F202034FF0D9
:100E5000010CC2580CFA01F11143C1507047000057
:100E600080B540F28000C2F200008078412808BFBF
:100E700080BD40F60000C4F201008021FFF710FEA3
:100E800080BD000010B50446FFF7D4FD204600F0F9
:100E90000DFA40F21800C2F20000018840F2B200E0
:100EA000C2F2000000F0CAF940F21400C2F20000E1
:100EB000018840F28000C2F2000000F065F910BD28
:100EC0002DE9F04186B040F216070646C2F200074F
:100ED00000203870104698460D4600F03DF940F26B
:100EE0000400C2F20000320910F808C0825C06F06B
:100EF0000F03C35C2C0905F00F01045D405C0CEB93
:100F000002011944214408440530C4B20320CDE94C
:100F1000025040F2B2050221C2F20005CDE90061A3
:100F20000AA12846012243460494FFF7B3F9284654
:100F30000B2100F065F9387820B900BF00BF387880
:100F40000028FBD000BF06B0BDE8F081256325581E
:100F500025303258256325303258256325303258E4
:100F6000000000002DE9F04F87B040F216098046DE
:100F7000C2F20009002089F8000010461C46154600
:100F80008B46FFF781FD8246062000F0E5F8BAF1B6
:100F9000000F0BD0681E00215246AC4610F8013FEE
:100FA000013A194489B2F9D1481D01E00520AC4647
:100FB00040F20401C2F200010A5D4FEA1813CD5C51
:100FC00008F00F068E5D4FEA1B171044CF5D2346D5
:100FD0000BF00F042844095D30443844084440F2C3
:100FE000BD04C7B203200221C2F20004CDE9008192
:100FF00004900DA120460122CDE902BC0597FFF720
:1010000049F90AF10B0081B2204600F0F9F899F88D
:10101000000020B900BF99F800000028FAD000BFF6
:1010200007B0BDE8F08F00BF256325582530325842
:10103000256325303258257325632530325800004A
:1010400041F20400C4F2020050F8041C41F4803163
:1010500040F8041C4FF6FE7150F8043C4A1E8A42C8
:1010600003D213F400311146F6D050F8041C890362
:1010700001D400BFFEE742F20001C4F202010A6897
:10108000042363F302020A6081694FF6FF7241F0A4
:10109000805181610168CBF2C37201600168016017
:1010A000016841F480610160016821F44031016010
:1010B000016841F44031016001681140016001683C
:1010C00041F0804141F44011016050F8041C41F0AE
:1010D000807140F8041C00BF50F8041C8901FBD546
:1010E00047F20001C4F200010A6842F480320A604B
:1010F0004A68D203FCD50A6842F400320A6000BF95
:101100004A689203FCD5016821F00301016001687F
:1011100041F00201016000BF016801F00C010829E3
:10112000FAD1704780B5FFF78BFF80BD80B540F2E4
:101130000000C2F20000006844F6D351C1F262011F
:10114000A0FB01018809FFF7F7FA00B1FEE70020D4
:10115000FFF760FB80BD0000B0B50025C4F20205BA
:10116000044628460521FFF75DFB2846052101229C
:10117000FFF7ACFB284605212246FFF775FC284601
:101180000521FFF761FBB0BD70B588B00024C4F243
:1011900002040D46064620460521FFF779FBA4F51B
:1011A000DC310020A1F57F718DF81E00CDE90360D0
:1011B00001914FF4807102904FF44050ADF81C1033
:1011C000069001AA204605210595FFF78FFB2046D2
:1011D0000521FFF74BFB20460521FFF719FC2046B0
:1011E00005210222FFF7BCFBA4F5DE30402100F010
:1011F00039F920460521FFF727FB08B070BD000034
:1012000070B50026C4F202060C460546304606219B
:10121000FFF708FB304606212A46FFF7E9FB304678
:1012200006212246FFF720FC30460621FFF70CFB83
:10123000A6F5DE30802100F029F970BD70B588B0C8
:1012400006464FF4A0600D46FFF7DAFD0024C4F215
:10125000020420460621FFF71BFB012044F2044153
:101260008DF81E000020C4F20001CDE904050191B3
:101270004FF4807102904FF44050ADF81C1006906E
:1012800001AA204606210396FFF730FB20460621DF
:101290000222FFF765FB20460621FFF7E7FA20460A
:1012A0000621FFF7B5FB08B070BD000070B505461C
:1012B00040F20260FFF7A4FD40F21170FFF7A0FDBD
:1012C00044F20044C4F2000404F5444630461821B8
:1012D00003220423FFF7E6FB304604210322082300
:1012E000FFF7E0FB204600F079F82046294600F0A1
:1012F0000DF82046042100F0EDF82046082100F00A
:10130000FBF8204600F0D6F870BD000070B504462A
:1013100044F6FF70C4F2000047F200060D46844216
:101320004FF00000C4F2010612DC44F20041C4F2A6
:1013300000018C421CD044F60001C4F200018C4232
:1013400016D044F60041C4F200018C4210D014E0E3
:1013500045F20001C4F200018C4209D043F60001BD
:10136000C4F201018C4205D0B44206D1042002E04F
:10137000022000E00320FFF7B3FCB44209D131683A
:10138000090410D400EB5500B0FBF5F000F00F019C
:1013900010E0E168090413D400EB5500B0FBF5F050
:1013A00000F00F0113E0400000EB5500B0FBF5F03A
:1013B000C0F342014FF6F07210400844F06070BD77
:1013C000400000EB5500B0FBF5F0C0F342014FF6D2
:1013D000F07210400844A06070BD000010B544F6E3
:1013E000FF71C4F20001884214DC44F20041C4F2EF
:1013F0000001884224D044F60001C4F20001884272
:1014000021D044F60041C4F20001884229D140F2C3
:10141000134420E045F20001C4F20001884215D0D7
:1014200043F60001C4F20101884212D047F20001E4
:10143000C4F20101884218BF10BD4FF447740AE09E
:1014400040F2114407E040F2124404E040F2144438
:1014500001E040F20E342046FFF7F2FC2046FFF791
:10146000DFFC10BD47F20802C4F20102A2F108033A
:10147000984205D1106820F0400008431060704782
:10148000426922F0400211434161704747F208026D
:10149000C4F20102A2F10803984205D1106820F0BD
:1014A0008000084310607047426922F080021143B7
:1014B0004161704747F20001C4F20101884204D142
:1014C000086840F0010008607047C16841F40051AD
:1014D000C160704747F20002C4F20102904205D198
:1014E0001068890861F3820010607047C26889083B
:1014F00061F38202C260704747F20002C4F2010247
:10150000904205D11068C90861F3C30010607047AC
:10151000C268C90861F3C302C260704730380A2844
:1015200001D20120704700207047F1EE100A4FF6FB
:10153000FF71C0F2C03120EA010040F04070E1EEDE
:10154000100A70473031323334353637383941423A
:101550004344454640305800303132333435363715
:1015600038396162636465664030780004000008C1
:101570000000000000000002000100001000000058
:10158000A01500080000002020000000DC01000879
:10159000C015000820000020B8080000F80100086D
:1015A0000095BA0A30313233343536373839414252
:1015B00043444546320001000B00000000000000DB
:04000005080001A14D
:00000001FF
